{
  "transactions": [
    {
      "hash": "0x3080e1e6b4399327ba457ac2885ed888584be04338f851119343eac61c5c9255",
      "transactionType": "CREATE",
      "contractName": "MockERC20",
      "contractAddress": "0xa23c4ff095a7c6687747797a380e52e71d891d7d",
      "function": null,
      "arguments": [
        "Mock USDT",
        "USDT",
        "6"
      ],
      "transaction": {
        "from": "0x02847d22c33f5f060bd27e69f1a413ad44cab213",
        "gas": "0x1aeefd",
        "value": "0x0",
        "input": "0x60e060405234801561000f575f5ffd5b50604051611dbf380380611dbf83398181016040528101906100319190610296565b828282825f9081610042919061052e565b508160019081610052919061052e565b508060ff1660808160ff16815250504660a0818152505061007761008960201b60201c565b60c08181525050505050505050610766565b5f7f8b73c3c69bb8fe3d512ecc4cf759cc79239f7b179b0ffacaa9a75d522b39400f5f6040516100b99190610699565b60405180910390207fc89efdaa54c0f20c7adf612882df0950f5a951637e0307cdcb4c672f298b8bc646306040516020016100f8959493929190610715565b60405160208183030381529060405280519060200120905090565b5f604051905090565b5f5ffd5b5f5ffd5b5f5ffd5b5f5ffd5b5f601f19601f8301169050919050565b7f4e487b71000000000000000000000000000000000000000000000000000000005f52604160045260245ffd5b6101728261012c565b810181811067ffffffffffffffff821117156101915761019061013c565b5b80604052505050565b5f6101a3610113565b90506101af8282610169565b919050565b5f67ffffffffffffffff8211156101ce576101cd61013c565b5b6101d78261012c565b9050602081019050919050565b8281835e5f83830152505050565b5f6102046101ff846101b4565b61019a565b9050828152602081018484840111156102205761021f610128565b5b61022b8482856101e4565b509392505050565b5f82601f83011261024757610246610124565b5b81516102578482602086016101f2565b91505092915050565b5f60ff82169050919050565b61027581610260565b811461027f575f5ffd5b50565b5f815190506102908161026c565b92915050565b5f5f5f606084860312156102ad576102ac61011c565b5b5f84015167ffffffffffffffff8111156102ca576102c9610120565b5b6102d686828701610233565b935050602084015167ffffffffffffffff8111156102f7576102f6610120565b5b61030386828701610233565b925050604061031486828701610282565b9150509250925092565b5f81519050919050565b7f4e487b71000000000000000000000000000000000000000000000000000000005f52602260045260245ffd5b5f600282049050600182168061036c57607f821691505b60208210810361037f5761037e610328565b5b50919050565b5f819050815f5260205f209050919050565b5f6020601f8301049050919050565b5f82821b905092915050565b5f600883026103e17fffffffffffffffffffffffffffffffffffffffffffffffffffffffffffffffff826103a6565b6103eb86836103a6565b95508019841693508086168417925050509392505050565b5f819050919050565b5f819050919050565b5f61042f61042a61042584610403565b61040c565b610403565b9050919050565b5f819050919050565b61044883610415565b61045c61045482610436565b8484546103b2565b825550505050565b5f5f905090565b610473610464565b61047e81848461043f565b505050565b5b818110156104a1576104965f8261046b565b600181019050610484565b5050565b601f8211156104e6576104b781610385565b6104c084610397565b810160208510156104cf578190505b6104e36104db85610397565b830182610483565b50505b505050565b5f82821c905092915050565b5f6105065f19846008026104eb565b1980831691505092915050565b5f61051e83836104f7565b9150826002028217905092915050565b6105378261031e565b67ffffffffffffffff8111156105505761054f61013c565b5b61055a8254610355565b6105658282856104a5565b5f60209050601f831160018114610596575f8415610584578287015190505b61058e8582610513565b8655506105f5565b601f1984166105a486610385565b5f5b828110156105cb578489015182556001820191506020850194506020810190506105a6565b868310156105e857848901516105e4601f8916826104f7565b8355505b6001600288020188555050505b505050505050565b5f81905092915050565b5f819050815f5260205f209050919050565b5f815461062581610355565b61062f81866105fd565b9450600182165f8114610649576001811461065e57610690565b60ff1983168652811515820286019350610690565b61066785610607565b5f5b8381101561068857815481890152600182019150602081019050610669565b838801955050505b50505092915050565b5f6106a48284610619565b915081905092915050565b5f819050919050565b6106c1816106af565b82525050565b6106d081610403565b82525050565b5f73ffffffffffffffffffffffffffffffffffffffff82169050919050565b5f6106ff826106d6565b9050919050565b61070f816106f5565b82525050565b5f60a0820190506107285f8301886106b8565b61073560208301876106b8565b61074260408301866106b8565b61074f60608301856106c7565b61075c6080830184610706565b9695505050505050565b60805160a05160c05161162f6107905f395f61070a01525f6106d601525f6106b1015261162f5ff3fe608060405234801561000f575f5ffd5b50600436106100e8575f3560e01c806370a082311161008a5780639dc29fac116100645780639dc29fac1461025e578063a9059cbb1461027a578063d505accf146102aa578063dd62ed3e146102c6576100e8565b806370a08231146101e05780637ecebe001461021057806395d89b4114610240576100e8565b806323b872dd116100c657806323b872dd14610158578063313ce567146101885780633644e515146101a657806340c10f19146101c4576100e8565b806306fdde03146100ec578063095ea7b31461010a57806318160ddd1461013a575b5f5ffd5b6100f46102f6565b6040516101019190610eab565b60405180910390f35b610124600480360381019061011f9190610f5c565b610381565b6040516101319190610fb4565b60405180910390f35b61014261046e565b60405161014f9190610fdc565b60405180910390f35b610172600480360381019061016d9190610ff5565b610474565b60405161017f9190610fb4565b60405180910390f35b6101906106af565b60405161019d9190611060565b60405180910390f35b6101ae6106d3565b6040516101bb9190611091565b60405180910390f35b6101de60048036038101906101d99190610f5c565b61072f565b005b6101fa60048036038101906101f591906110aa565b61073d565b6040516102079190610fdc565b60405180910390f35b61022a600480360381019061022591906110aa565b610752565b6040516102379190610fdc565b60405180910390f35b610248610767565b6040516102559190610eab565b60405180910390f35b61027860048036038101906102739190610f5c565b6107f3565b005b610294600480360381019061028f9190610f5c565b610801565b6040516102a19190610fb4565b60405180910390f35b6102c460048036038101906102bf9190611129565b61090e565b005b6102e060048036038101906102db91906111c6565b610bfb565b6040516102ed9190610fdc565b60405180910390f35b5f805461030290611231565b80601f016020809104026020016040519081016040528092919081815260200182805461032e90611231565b80156103795780601f1061035057610100808354040283529160200191610379565b820191905f5260205f20905b81548152906001019060200180831161035c57829003601f168201915b505050505081565b5f8160045f3373ffffffffffffffffffffffffffffffffffffffff1673ffffffffffffffffffffffffffffffffffffffff1681526020019081526020015f205f8573ffffffffffffffffffffffffffffffffffffffff1673ffffffffffffffffffffffffffffffffffffffff1681526020019081526020015f20819055508273ffffffffffffffffffffffffffffffffffffffff163373ffffffffffffffffffffffffffffffffffffffff167f8c5be1e5ebec7d5bd14f71427d1e84f3dd0314c0f7b2291e5b200ac8c7c3b9258460405161045c9190610fdc565b60405180910390a36001905092915050565b60025481565b5f5f60045f8673ffffffffffffffffffffffffffffffffffffffff1673ffffffffffffffffffffffffffffffffffffffff1681526020019081526020015f205f3373ffffffffffffffffffffffffffffffffffffffff1673ffffffffffffffffffffffffffffffffffffffff1681526020019081526020015f205490507fffffffffffffffffffffffffffffffffffffffffffffffffffffffffffffffff81146105a1578281610524919061128e565b60045f8773ffffffffffffffffffffffffffffffffffffffff1673ffffffffffffffffffffffffffffffffffffffff1681526020019081526020015f205f3373ffffffffffffffffffffffffffffffffffffffff1673ffffffffffffffffffffffffffffffffffffffff1681526020019081526020015f20819055505b8260035f8773ffffffffffffffffffffffffffffffffffffffff1673ffffffffffffffffffffffffffffffffffffffff1681526020019081526020015f205f8282546105ed919061128e565b925050819055508260035f8673ffffffffffffffffffffffffffffffffffffffff1673ffffffffffffffffffffffffffffffffffffffff1681526020019081526020015f205f82825401925050819055508373ffffffffffffffffffffffffffffffffffffffff168573ffffffffffffffffffffffffffffffffffffffff167fddf252ad1be2c89b69c2b068fc378daa952ba7f163c4a11628f55a4df523b3ef8560405161069b9190610fdc565b60405180910390a360019150509392505050565b7f000000000000000000000000000000000000000000000000000000000000000081565b5f7f0000000000000000000000000000000000000000000000000000000000000000461461070857610703610c1b565b61072a565b7f00000000000000000000000000000000000000000000000000000000000000005b905090565b6107398282610ca5565b5050565b6003602052805f5260405f205f915090505481565b6005602052805f5260405f205f915090505481565b6001805461077490611231565b80601f01602080910402602001604051908101604052809291908181526020018280546107a090611231565b80156107eb5780601f106107c2576101008083540402835291602001916107eb565b820191905f5260205f20905b8154815290600101906020018083116107ce57829003601f168201915b505050505081565b6107fd8282610d70565b5050565b5f8160035f3373ffffffffffffffffffffffffffffffffffffffff1673ffffffffffffffffffffffffffffffffffffffff1681526020019081526020015f205f82825461084e919061128e565b925050819055508160035f8573ffffffffffffffffffffffffffffffffffffffff1673ffffffffffffffffffffffffffffffffffffffff1681526020019081526020015f205f82825401925050819055508273ffffffffffffffffffffffffffffffffffffffff163373ffffffffffffffffffffffffffffffffffffffff167fddf252ad1be2c89b69c2b068fc378daa952ba7f163c4a11628f55a4df523b3ef846040516108fc9190610fdc565b60405180910390a36001905092915050565b42841015610951576040517f08c379a00000000000000000000000000000000000000000000000000000000081526004016109489061130b565b60405180910390fd5b5f600161095c6106d3565b7f6e71edae12b1b97f4d1f60370fef10105fa2faae0126114a169c64845d6126c98a8a8a60055f8f73ffffffffffffffffffffffffffffffffffffffff1673ffffffffffffffffffffffffffffffffffffffff1681526020019081526020015f205f815480929190600101919050558b6040516020016109e196959493929190611338565b60405160208183030381529060405280519060200120604051602001610a0892919061140b565b604051602081830303815290604052805190602001208585856040515f8152602001604052604051610a3d9493929190611441565b6020604051602081039080840390855afa158015610a5d573d5f5f3e3d5ffd5b5050506020604051035190505f73ffffffffffffffffffffffffffffffffffffffff168173ffffffffffffffffffffffffffffffffffffffff1614158015610ad057508773ffffffffffffffffffffffffffffffffffffffff168173ffffffffffffffffffffffffffffffffffffffff16145b610b0f576040517f08c379a0000000000000000000000000000000000000000000000000000000008152600401610b06906114ce565b60405180910390fd5b8560045f8373ffffffffffffffffffffffffffffffffffffffff1673ffffffffffffffffffffffffffffffffffffffff1681526020019081526020015f205f8973ffffffffffffffffffffffffffffffffffffffff1673ffffffffffffffffffffffffffffffffffffffff1681526020019081526020015f2081905550508573ffffffffffffffffffffffffffffffffffffffff168773ffffffffffffffffffffffffffffffffffffffff167f8c5be1e5ebec7d5bd14f71427d1e84f3dd0314c0f7b2291e5b200ac8c7c3b92587604051610bea9190610fdc565b60405180910390a350505050505050565b6004602052815f5260405f20602052805f5260405f205f91509150505481565b5f7f8b73c3c69bb8fe3d512ecc4cf759cc79239f7b179b0ffacaa9a75d522b39400f5f604051610c4b9190611588565b60405180910390207fc89efdaa54c0f20c7adf612882df0950f5a951637e0307cdcb4c672f298b8bc64630604051602001610c8a95949392919061159e565b60405160208183030381529060405280519060200120905090565b8060025f828254610cb691906115ef565b925050819055508060035f8473ffffffffffffffffffffffffffffffffffffffff1673ffffffffffffffffffffffffffffffffffffffff1681526020019081526020015f205f82825401925050819055508173ffffffffffffffffffffffffffffffffffffffff165f73ffffffffffffffffffffffffffffffffffffffff167fddf252ad1be2c89b69c2b068fc378daa952ba7f163c4a11628f55a4df523b3ef83604051610d649190610fdc565b60405180910390a35050565b8060035f8473ffffffffffffffffffffffffffffffffffffffff1673ffffffffffffffffffffffffffffffffffffffff1681526020019081526020015f205f828254610dbc919061128e565b925050819055508060025f82825403925050819055505f73ffffffffffffffffffffffffffffffffffffffff168273ffffffffffffffffffffffffffffffffffffffff167fddf252ad1be2c89b69c2b068fc378daa952ba7f163c4a11628f55a4df523b3ef83604051610e2f9190610fdc565b60405180910390a35050565b5f81519050919050565b5f82825260208201905092915050565b8281835e5f83830152505050565b5f601f19601f8301169050919050565b5f610e7d82610e3b565b610e878185610e45565b9350610e97818560208601610e55565b610ea081610e63565b840191505092915050565b5f6020820190508181035f830152610ec38184610e73565b905092915050565b5f5ffd5b5f73ffffffffffffffffffffffffffffffffffffffff82169050919050565b5f610ef882610ecf565b9050919050565b610f0881610eee565b8114610f12575f5ffd5b50565b5f81359050610f2381610eff565b92915050565b5f819050919050565b610f3b81610f29565b8114610f45575f5ffd5b50565b5f81359050610f5681610f32565b92915050565b5f5f60408385031215610f7257610f71610ecb565b5b5f610f7f85828601610f15565b9250506020610f9085828601610f48565b9150509250929050565b5f8115159050919050565b610fae81610f9a565b82525050565b5f602082019050610fc75f830184610fa5565b92915050565b610fd681610f29565b82525050565b5f602082019050610fef5f830184610fcd565b92915050565b5f5f5f6060848603121561100c5761100b610ecb565b5b5f61101986828701610f15565b935050602061102a86828701610f15565b925050604061103b86828701610f48565b9150509250925092565b5f60ff82169050919050565b61105a81611045565b82525050565b5f6020820190506110735f830184611051565b92915050565b5f819050919050565b61108b81611079565b82525050565b5f6020820190506110a45f830184611082565b92915050565b5f602082840312156110bf576110be610ecb565b5b5f6110cc84828501610f15565b91505092915050565b6110de81611045565b81146110e8575f5ffd5b50565b5f813590506110f9816110d5565b92915050565b61110881611079565b8114611112575f5ffd5b50565b5f81359050611123816110ff565b92915050565b5f5f5f5f5f5f5f60e0888a03121561114457611143610ecb565b5b5f6111518a828b01610f15565b97505060206111628a828b01610f15565b96505060406111738a828b01610f48565b95505060606111848a828b01610f48565b94505060806111958a828b016110eb565b93505060a06111a68a828b01611115565b92505060c06111b78a828b01611115565b91505092959891949750929550565b5f5f604083850312156111dc576111db610ecb565b5b5f6111e985828601610f15565b92505060206111fa85828601610f15565b9150509250929050565b7f4e487b71000000000000000000000000000000000000000000000000000000005f52602260045260245ffd5b5f600282049050600182168061124857607f821691505b60208210810361125b5761125a611204565b5b50919050565b7f4e487b71000000000000000000000000000000000000000000000000000000005f52601160045260245ffd5b5f61129882610f29565b91506112a383610f29565b92508282039050818111156112bb576112ba611261565b5b92915050565b7f5045524d49545f444541444c494e455f455850495245440000000000000000005f82015250565b5f6112f5601783610e45565b9150611300826112c1565b602082019050919050565b5f6020820190508181035f830152611322816112e9565b9050919050565b61133281610eee565b82525050565b5f60c08201905061134b5f830189611082565b6113586020830188611329565b6113656040830187611329565b6113726060830186610fcd565b61137f6080830185610fcd565b61138c60a0830184610fcd565b979650505050505050565b5f81905092915050565b7f19010000000000000000000000000000000000000000000000000000000000005f82015250565b5f6113d5600283611397565b91506113e0826113a1565b600282019050919050565b5f819050919050565b61140561140082611079565b6113eb565b82525050565b5f611415826113c9565b915061142182856113f4565b60208201915061143182846113f4565b6020820191508190509392505050565b5f6080820190506114545f830187611082565b6114616020830186611051565b61146e6040830185611082565b61147b6060830184611082565b95945050505050565b7f494e56414c49445f5349474e45520000000000000000000000000000000000005f82015250565b5f6114b8600e83610e45565b91506114c382611484565b602082019050919050565b5f6020820190508181035f8301526114e5816114ac565b9050919050565b5f81905092915050565b5f819050815f5260205f209050919050565b5f815461151481611231565b61151e81866114ec565b9450600182165f8114611538576001811461154d5761157f565b60ff198316865281151582028601935061157f565b611556856114f6565b5f5b8381101561157757815481890152600182019150602081019050611558565b838801955050505b50505092915050565b5f6115938284611508565b915081905092915050565b5f60a0820190506115b15f830188611082565b6115be6020830187611082565b6115cb6040830186611082565b6115d86060830185610fcd565b6115e56080830184611329565b9695505050505050565b5f6115f982610f29565b915061160483610f29565b925082820190508082111561161c5761161b611261565b5b9291505056fea164736f6c634300081e000a000000000000000000000000000000000000000000000000000000000000006000000000000000000000000000000000000000000000000000000000000000a0000000000000000000000000000000000000000000000000000000000000000600000000000000000000000000000000000000000000000000000000000000094d6f636b2055534454000000000000000000000000000000000000000000000000000000000000000000000000000000000000000000000000000000000000045553445400000000000000000000000000000000000000000000000000000000",
        "nonce": "0xb62",
        "chainId": "0x14a34"
      },
      "additionalContracts": [],
      "isFixedGasLimit": false
    },
    {
      "hash": "0x94ed42f62181e5bd4fa200944cf48f2351dc3fcc6fdb69b461a62ea9b03be1ce",
      "transactionType": "CREATE",
      "contractName": "MockERC20",
      "contractAddress": "0x4b0c697aef1ffd55b912091e7fc2ba3771ab11ef",
      "function": null,
      "arguments": [
        "Mock USDC",
        "USDC",
        "6"
      ],
      "transaction": {
        "from": "0x02847d22c33f5f060bd27e69f1a413ad44cab213",
        "gas": "0x1aeefd",
        "value": "0x0",
        "input": "0x60e060405234801561000f575f5ffd5b50604051611dbf380380611dbf83398181016040528101906100319190610296565b828282825f9081610042919061052e565b508160019081610052919061052e565b508060ff1660808160ff16815250504660a0818152505061007761008960201b60201c565b60c08181525050505050505050610766565b5f7f8b73c3c69bb8fe3d512ecc4cf759cc79239f7b179b0ffacaa9a75d522b39400f5f6040516100b99190610699565b60405180910390207fc89efdaa54c0f20c7adf612882df0950f5a951637e0307cdcb4c672f298b8bc646306040516020016100f8959493929190610715565b60405160208183030381529060405280519060200120905090565b5f604051905090565b5f5ffd5b5f5ffd5b5f5ffd5b5f5ffd5b5f601f19601f8301169050919050565b7f4e487b71000000000000000000000000000000000000000000000000000000005f52604160045260245ffd5b6101728261012c565b810181811067ffffffffffffffff821117156101915761019061013c565b5b80604052505050565b5f6101a3610113565b90506101af8282610169565b919050565b5f67ffffffffffffffff8211156101ce576101cd61013c565b5b6101d78261012c565b9050602081019050919050565b8281835e5f83830152505050565b5f6102046101ff846101b4565b61019a565b9050828152602081018484840111156102205761021f610128565b5b61022b8482856101e4565b509392505050565b5f82601f83011261024757610246610124565b5b81516102578482602086016101f2565b91505092915050565b5f60ff82169050919050565b61027581610260565b811461027f575f5ffd5b50565b5f815190506102908161026c565b92915050565b5f5f5f606084860312156102ad576102ac61011c565b5b5f84015167ffffffffffffffff8111156102ca576102c9610120565b5b6102d686828701610233565b935050602084015167ffffffffffffffff8111156102f7576102f6610120565b5b61030386828701610233565b925050604061031486828701610282565b9150509250925092565b5f81519050919050565b7f4e487b71000000000000000000000000000000000000000000000000000000005f52602260045260245ffd5b5f600282049050600182168061036c57607f821691505b60208210810361037f5761037e610328565b5b50919050565b5f819050815f5260205f209050919050565b5f6020601f8301049050919050565b5f82821b905092915050565b5f600883026103e17fffffffffffffffffffffffffffffffffffffffffffffffffffffffffffffffff826103a6565b6103eb86836103a6565b95508019841693508086168417925050509392505050565b5f819050919050565b5f819050919050565b5f61042f61042a61042584610403565b61040c565b610403565b9050919050565b5f819050919050565b61044883610415565b61045c61045482610436565b8484546103b2565b825550505050565b5f5f905090565b610473610464565b61047e81848461043f565b505050565b5b818110156104a1576104965f8261046b565b600181019050610484565b5050565b601f8211156104e6576104b781610385565b6104c084610397565b810160208510156104cf578190505b6104e36104db85610397565b830182610483565b50505b505050565b5f82821c905092915050565b5f6105065f19846008026104eb565b1980831691505092915050565b5f61051e83836104f7565b9150826002028217905092915050565b6105378261031e565b67ffffffffffffffff8111156105505761054f61013c565b5b61055a8254610355565b6105658282856104a5565b5f60209050601f831160018114610596575f8415610584578287015190505b61058e8582610513565b8655506105f5565b601f1984166105a486610385565b5f5b828110156105cb578489015182556001820191506020850194506020810190506105a6565b868310156105e857848901516105e4601f8916826104f7565b8355505b6001600288020188555050505b505050505050565b5f81905092915050565b5f819050815f5260205f209050919050565b5f815461062581610355565b61062f81866105fd565b9450600182165f8114610649576001811461065e57610690565b60ff1983168652811515820286019350610690565b61066785610607565b5f5b8381101561068857815481890152600182019150602081019050610669565b838801955050505b50505092915050565b5f6106a48284610619565b915081905092915050565b5f819050919050565b6106c1816106af565b82525050565b6106d081610403565b82525050565b5f73ffffffffffffffffffffffffffffffffffffffff82169050919050565b5f6106ff826106d6565b9050919050565b61070f816106f5565b82525050565b5f60a0820190506107285f8301886106b8565b61073560208301876106b8565b61074260408301866106b8565b61074f60608301856106c7565b61075c6080830184610706565b9695505050505050565b60805160a05160c05161162f6107905f395f61070a01525f6106d601525f6106b1015261162f5ff3fe608060405234801561000f575f5ffd5b50600436106100e8575f3560e01c806370a082311161008a5780639dc29fac116100645780639dc29fac1461025e578063a9059cbb1461027a578063d505accf146102aa578063dd62ed3e146102c6576100e8565b806370a08231146101e05780637ecebe001461021057806395d89b4114610240576100e8565b806323b872dd116100c657806323b872dd14610158578063313ce567146101885780633644e515146101a657806340c10f19146101c4576100e8565b806306fdde03146100ec578063095ea7b31461010a57806318160ddd1461013a575b5f5ffd5b6100f46102f6565b6040516101019190610eab565b60405180910390f35b610124600480360381019061011f9190610f5c565b610381565b6040516101319190610fb4565b60405180910390f35b61014261046e565b60405161014f9190610fdc565b60405180910390f35b610172600480360381019061016d9190610ff5565b610474565b60405161017f9190610fb4565b60405180910390f35b6101906106af565b60405161019d9190611060565b60405180910390f35b6101ae6106d3565b6040516101bb9190611091565b60405180910390f35b6101de60048036038101906101d99190610f5c565b61072f565b005b6101fa60048036038101906101f591906110aa565b61073d565b6040516102079190610fdc565b60405180910390f35b61022a600480360381019061022591906110aa565b610752565b6040516102379190610fdc565b60405180910390f35b610248610767565b6040516102559190610eab565b60405180910390f35b61027860048036038101906102739190610f5c565b6107f3565b005b610294600480360381019061028f9190610f5c565b610801565b6040516102a19190610fb4565b60405180910390f35b6102c460048036038101906102bf9190611129565b61090e565b005b6102e060048036038101906102db91906111c6565b610bfb565b6040516102ed9190610fdc565b60405180910390f35b5f805461030290611231565b80601f016020809104026020016040519081016040528092919081815260200182805461032e90611231565b80156103795780601f1061035057610100808354040283529160200191610379565b820191905f5260205f20905b81548152906001019060200180831161035c57829003601f168201915b505050505081565b5f8160045f3373ffffffffffffffffffffffffffffffffffffffff1673ffffffffffffffffffffffffffffffffffffffff1681526020019081526020015f205f8573ffffffffffffffffffffffffffffffffffffffff1673ffffffffffffffffffffffffffffffffffffffff1681526020019081526020015f20819055508273ffffffffffffffffffffffffffffffffffffffff163373ffffffffffffffffffffffffffffffffffffffff167f8c5be1e5ebec7d5bd14f71427d1e84f3dd0314c0f7b2291e5b200ac8c7c3b9258460405161045c9190610fdc565b60405180910390a36001905092915050565b60025481565b5f5f60045f8673ffffffffffffffffffffffffffffffffffffffff1673ffffffffffffffffffffffffffffffffffffffff1681526020019081526020015f205f3373ffffffffffffffffffffffffffffffffffffffff1673ffffffffffffffffffffffffffffffffffffffff1681526020019081526020015f205490507fffffffffffffffffffffffffffffffffffffffffffffffffffffffffffffffff81146105a1578281610524919061128e565b60045f8773ffffffffffffffffffffffffffffffffffffffff1673ffffffffffffffffffffffffffffffffffffffff1681526020019081526020015f205f3373ffffffffffffffffffffffffffffffffffffffff1673ffffffffffffffffffffffffffffffffffffffff1681526020019081526020015f20819055505b8260035f8773ffffffffffffffffffffffffffffffffffffffff1673ffffffffffffffffffffffffffffffffffffffff1681526020019081526020015f205f8282546105ed919061128e565b925050819055508260035f8673ffffffffffffffffffffffffffffffffffffffff1673ffffffffffffffffffffffffffffffffffffffff1681526020019081526020015f205f82825401925050819055508373ffffffffffffffffffffffffffffffffffffffff168573ffffffffffffffffffffffffffffffffffffffff167fddf252ad1be2c89b69c2b068fc378daa952ba7f163c4a11628f55a4df523b3ef8560405161069b9190610fdc565b60405180910390a360019150509392505050565b7f000000000000000000000000000000000000000000000000000000000000000081565b5f7f0000000000000000000000000000000000000000000000000000000000000000461461070857610703610c1b565b61072a565b7f00000000000000000000000000000000000000000000000000000000000000005b905090565b6107398282610ca5565b5050565b6003602052805f5260405f205f915090505481565b6005602052805f5260405f205f915090505481565b6001805461077490611231565b80601f01602080910402602001604051908101604052809291908181526020018280546107a090611231565b80156107eb5780601f106107c2576101008083540402835291602001916107eb565b820191905f5260205f20905b8154815290600101906020018083116107ce57829003601f168201915b505050505081565b6107fd8282610d70565b5050565b5f8160035f3373ffffffffffffffffffffffffffffffffffffffff1673ffffffffffffffffffffffffffffffffffffffff1681526020019081526020015f205f82825461084e919061128e565b925050819055508160035f8573ffffffffffffffffffffffffffffffffffffffff1673ffffffffffffffffffffffffffffffffffffffff1681526020019081526020015f205f82825401925050819055508273ffffffffffffffffffffffffffffffffffffffff163373ffffffffffffffffffffffffffffffffffffffff167fddf252ad1be2c89b69c2b068fc378daa952ba7f163c4a11628f55a4df523b3ef846040516108fc9190610fdc565b60405180910390a36001905092915050565b42841015610951576040517f08c379a00000000000000000000000000000000000000000000000000000000081526004016109489061130b565b60405180910390fd5b5f600161095c6106d3565b7f6e71edae12b1b97f4d1f60370fef10105fa2faae0126114a169c64845d6126c98a8a8a60055f8f73ffffffffffffffffffffffffffffffffffffffff1673ffffffffffffffffffffffffffffffffffffffff1681526020019081526020015f205f815480929190600101919050558b6040516020016109e196959493929190611338565b60405160208183030381529060405280519060200120604051602001610a0892919061140b565b604051602081830303815290604052805190602001208585856040515f8152602001604052604051610a3d9493929190611441565b6020604051602081039080840390855afa158015610a5d573d5f5f3e3d5ffd5b5050506020604051035190505f73ffffffffffffffffffffffffffffffffffffffff168173ffffffffffffffffffffffffffffffffffffffff1614158015610ad057508773ffffffffffffffffffffffffffffffffffffffff168173ffffffffffffffffffffffffffffffffffffffff16145b610b0f576040517f08c379a0000000000000000000000000000000000000000000000000000000008152600401610b06906114ce565b60405180910390fd5b8560045f8373ffffffffffffffffffffffffffffffffffffffff1673ffffffffffffffffffffffffffffffffffffffff1681526020019081526020015f205f8973ffffffffffffffffffffffffffffffffffffffff1673ffffffffffffffffffffffffffffffffffffffff1681526020019081526020015f2081905550508573ffffffffffffffffffffffffffffffffffffffff168773ffffffffffffffffffffffffffffffffffffffff167f8c5be1e5ebec7d5bd14f71427d1e84f3dd0314c0f7b2291e5b200ac8c7c3b92587604051610bea9190610fdc565b60405180910390a350505050505050565b6004602052815f5260405f20602052805f5260405f205f91509150505481565b5f7f8b73c3c69bb8fe3d512ecc4cf759cc79239f7b179b0ffacaa9a75d522b39400f5f604051610c4b9190611588565b60405180910390207fc89efdaa54c0f20c7adf612882df0950f5a951637e0307cdcb4c672f298b8bc64630604051602001610c8a95949392919061159e565b60405160208183030381529060405280519060200120905090565b8060025f828254610cb691906115ef565b925050819055508060035f8473ffffffffffffffffffffffffffffffffffffffff1673ffffffffffffffffffffffffffffffffffffffff1681526020019081526020015f205f82825401925050819055508173ffffffffffffffffffffffffffffffffffffffff165f73ffffffffffffffffffffffffffffffffffffffff167fddf252ad1be2c89b69c2b068fc378daa952ba7f163c4a11628f55a4df523b3ef83604051610d649190610fdc565b60405180910390a35050565b8060035f8473ffffffffffffffffffffffffffffffffffffffff1673ffffffffffffffffffffffffffffffffffffffff1681526020019081526020015f205f828254610dbc919061128e565b925050819055508060025f82825403925050819055505f73ffffffffffffffffffffffffffffffffffffffff168273ffffffffffffffffffffffffffffffffffffffff167fddf252ad1be2c89b69c2b068fc378daa952ba7f163c4a11628f55a4df523b3ef83604051610e2f9190610fdc565b60405180910390a35050565b5f81519050919050565b5f82825260208201905092915050565b8281835e5f83830152505050565b5f601f19601f8301169050919050565b5f610e7d82610e3b565b610e878185610e45565b9350610e97818560208601610e55565b610ea081610e63565b840191505092915050565b5f6020820190508181035f830152610ec38184610e73565b905092915050565b5f5ffd5b5f73ffffffffffffffffffffffffffffffffffffffff82169050919050565b5f610ef882610ecf565b9050919050565b610f0881610eee565b8114610f12575f5ffd5b50565b5f81359050610f2381610eff565b92915050565b5f819050919050565b610f3b81610f29565b8114610f45575f5ffd5b50565b5f81359050610f5681610f32565b92915050565b5f5f60408385031215610f7257610f71610ecb565b5b5f610f7f85828601610f15565b9250506020610f9085828601610f48565b9150509250929050565b5f8115159050919050565b610fae81610f9a565b82525050565b5f602082019050610fc75f830184610fa5565b92915050565b610fd681610f29565b82525050565b5f602082019050610fef5f830184610fcd565b92915050565b5f5f5f6060848603121561100c5761100b610ecb565b5b5f61101986828701610f15565b935050602061102a86828701610f15565b925050604061103b86828701610f48565b9150509250925092565b5f60ff82169050919050565b61105a81611045565b82525050565b5f6020820190506110735f830184611051565b92915050565b5f819050919050565b61108b81611079565b82525050565b5f6020820190506110a45f830184611082565b92915050565b5f602082840312156110bf576110be610ecb565b5b5f6110cc84828501610f15565b91505092915050565b6110de81611045565b81146110e8575f5ffd5b50565b5f813590506110f9816110d5565b92915050565b61110881611079565b8114611112575f5ffd5b50565b5f81359050611123816110ff565b92915050565b5f5f5f5f5f5f5f60e0888a03121561114457611143610ecb565b5b5f6111518a828b01610f15565b97505060206111628a828b01610f15565b96505060406111738a828b01610f48565b95505060606111848a828b01610f48565b94505060806111958a828b016110eb565b93505060a06111a68a828b01611115565b92505060c06111b78a828b01611115565b91505092959891949750929550565b5f5f604083850312156111dc576111db610ecb565b5b5f6111e985828601610f15565b92505060206111fa85828601610f15565b9150509250929050565b7f4e487b71000000000000000000000000000000000000000000000000000000005f52602260045260245ffd5b5f600282049050600182168061124857607f821691505b60208210810361125b5761125a611204565b5b50919050565b7f4e487b71000000000000000000000000000000000000000000000000000000005f52601160045260245ffd5b5f61129882610f29565b91506112a383610f29565b92508282039050818111156112bb576112ba611261565b5b92915050565b7f5045524d49545f444541444c494e455f455850495245440000000000000000005f82015250565b5f6112f5601783610e45565b9150611300826112c1565b602082019050919050565b5f6020820190508181035f830152611322816112e9565b9050919050565b61133281610eee565b82525050565b5f60c08201905061134b5f830189611082565b6113586020830188611329565b6113656040830187611329565b6113726060830186610fcd565b61137f6080830185610fcd565b61138c60a0830184610fcd565b979650505050505050565b5f81905092915050565b7f19010000000000000000000000000000000000000000000000000000000000005f82015250565b5f6113d5600283611397565b91506113e0826113a1565b600282019050919050565b5f819050919050565b61140561140082611079565b6113eb565b82525050565b5f611415826113c9565b915061142182856113f4565b60208201915061143182846113f4565b6020820191508190509392505050565b5f6080820190506114545f830187611082565b6114616020830186611051565b61146e6040830185611082565b61147b6060830184611082565b95945050505050565b7f494e56414c49445f5349474e45520000000000000000000000000000000000005f82015250565b5f6114b8600e83610e45565b91506114c382611484565b602082019050919050565b5f6020820190508181035f8301526114e5816114ac565b9050919050565b5f81905092915050565b5f819050815f5260205f209050919050565b5f815461151481611231565b61151e81866114ec565b9450600182165f8114611538576001811461154d5761157f565b60ff198316865281151582028601935061157f565b611556856114f6565b5f5b8381101561157757815481890152600182019150602081019050611558565b838801955050505b50505092915050565b5f6115938284611508565b915081905092915050565b5f60a0820190506115b15f830188611082565b6115be6020830187611082565b6115cb6040830186611082565b6115d86060830185610fcd565b6115e56080830184611329565b9695505050505050565b5f6115f982610f29565b915061160483610f29565b925082820190508082111561161c5761161b611261565b5b9291505056fea164736f6c634300081e000a000000000000000000000000000000000000000000000000000000000000006000000000000000000000000000000000000000000000000000000000000000a0000000000000000000000000000000000000000000000000000000000000000600000000000000000000000000000000000000000000000000000000000000094d6f636b2055534443000000000000000000000000000000000000000000000000000000000000000000000000000000000000000000000000000000000000045553444300000000000000000000000000000000000000000000000000000000",
        "nonce": "0xb63",
        "chainId": "0x14a34"
      },
      "additionalContracts": [],
      "isFixedGasLimit": false
    },
    {
      "hash": "0xc89c3322152779d61613682746cfa2d5b7bbee3e4bddc8f657793496dd2fe99c",
      "transactionType": "CREATE",
      "contractName": "MockERC20",
      "contractAddress": "0x68e4f80d47b030f840f468ddfbd927c5a1746768",
      "function": null,
      "arguments": [
        "Mock WETH",
        "WETH",
        "18"
      ],
      "transaction": {
        "from": "0x02847d22c33f5f060bd27e69f1a413ad44cab213",
        "gas": "0x1aeefd",
        "value": "0x0",
        "input": "0x60e060405234801561000f575f5ffd5b50604051611dbf380380611dbf83398181016040528101906100319190610296565b828282825f9081610042919061052e565b508160019081610052919061052e565b508060ff1660808160ff16815250504660a0818152505061007761008960201b60201c565b60c08181525050505050505050610766565b5f7f8b73c3c69bb8fe3d512ecc4cf759cc79239f7b179b0ffacaa9a75d522b39400f5f6040516100b99190610699565b60405180910390207fc89efdaa54c0f20c7adf612882df0950f5a951637e0307cdcb4c672f298b8bc646306040516020016100f8959493929190610715565b60405160208183030381529060405280519060200120905090565b5f604051905090565b5f5ffd5b5f5ffd5b5f5ffd5b5f5ffd5b5f601f19601f8301169050919050565b7f4e487b71000000000000000000000000000000000000000000000000000000005f52604160045260245ffd5b6101728261012c565b810181811067ffffffffffffffff821117156101915761019061013c565b5b80604052505050565b5f6101a3610113565b90506101af8282610169565b919050565b5f67ffffffffffffffff8211156101ce576101cd61013c565b5b6101d78261012c565b9050602081019050919050565b8281835e5f83830152505050565b5f6102046101ff846101b4565b61019a565b9050828152602081018484840111156102205761021f610128565b5b61022b8482856101e4565b509392505050565b5f82601f83011261024757610246610124565b5b81516102578482602086016101f2565b91505092915050565b5f60ff82169050919050565b61027581610260565b811461027f575f5ffd5b50565b5f815190506102908161026c565b92915050565b5f5f5f606084860312156102ad576102ac61011c565b5b5f84015167ffffffffffffffff8111156102ca576102c9610120565b5b6102d686828701610233565b935050602084015167ffffffffffffffff8111156102f7576102f6610120565b5b61030386828701610233565b925050604061031486828701610282565b9150509250925092565b5f81519050919050565b7f4e487b71000000000000000000000000000000000000000000000000000000005f52602260045260245ffd5b5f600282049050600182168061036c57607f821691505b60208210810361037f5761037e610328565b5b50919050565b5f819050815f5260205f209050919050565b5f6020601f8301049050919050565b5f82821b905092915050565b5f600883026103e17fffffffffffffffffffffffffffffffffffffffffffffffffffffffffffffffff826103a6565b6103eb86836103a6565b95508019841693508086168417925050509392505050565b5f819050919050565b5f819050919050565b5f61042f61042a61042584610403565b61040c565b610403565b9050919050565b5f819050919050565b61044883610415565b61045c61045482610436565b8484546103b2565b825550505050565b5f5f905090565b610473610464565b61047e81848461043f565b505050565b5b818110156104a1576104965f8261046b565b600181019050610484565b5050565b601f8211156104e6576104b781610385565b6104c084610397565b810160208510156104cf578190505b6104e36104db85610397565b830182610483565b50505b505050565b5f82821c905092915050565b5f6105065f19846008026104eb565b1980831691505092915050565b5f61051e83836104f7565b9150826002028217905092915050565b6105378261031e565b67ffffffffffffffff8111156105505761054f61013c565b5b61055a8254610355565b6105658282856104a5565b5f60209050601f831160018114610596575f8415610584578287015190505b61058e8582610513565b8655506105f5565b601f1984166105a486610385565b5f5b828110156105cb578489015182556001820191506020850194506020810190506105a6565b868310156105e857848901516105e4601f8916826104f7565b8355505b6001600288020188555050505b505050505050565b5f81905092915050565b5f819050815f5260205f209050919050565b5f815461062581610355565b61062f81866105fd565b9450600182165f8114610649576001811461065e57610690565b60ff1983168652811515820286019350610690565b61066785610607565b5f5b8381101561068857815481890152600182019150602081019050610669565b838801955050505b50505092915050565b5f6106a48284610619565b915081905092915050565b5f819050919050565b6106c1816106af565b82525050565b6106d081610403565b82525050565b5f73ffffffffffffffffffffffffffffffffffffffff82169050919050565b5f6106ff826106d6565b9050919050565b61070f816106f5565b82525050565b5f60a0820190506107285f8301886106b8565b61073560208301876106b8565b61074260408301866106b8565b61074f60608301856106c7565b61075c6080830184610706565b9695505050505050565b60805160a05160c05161162f6107905f395f61070a01525f6106d601525f6106b1015261162f5ff3fe608060405234801561000f575f5ffd5b50600436106100e8575f3560e01c806370a082311161008a5780639dc29fac116100645780639dc29fac1461025e578063a9059cbb1461027a578063d505accf146102aa578063dd62ed3e146102c6576100e8565b806370a08231146101e05780637ecebe001461021057806395d89b4114610240576100e8565b806323b872dd116100c657806323b872dd14610158578063313ce567146101885780633644e515146101a657806340c10f19146101c4576100e8565b806306fdde03146100ec578063095ea7b31461010a57806318160ddd1461013a575b5f5ffd5b6100f46102f6565b6040516101019190610eab565b60405180910390f35b610124600480360381019061011f9190610f5c565b610381565b6040516101319190610fb4565b60405180910390f35b61014261046e565b60405161014f9190610fdc565b60405180910390f35b610172600480360381019061016d9190610ff5565b610474565b60405161017f9190610fb4565b60405180910390f35b6101906106af565b60405161019d9190611060565b60405180910390f35b6101ae6106d3565b6040516101bb9190611091565b60405180910390f35b6101de60048036038101906101d99190610f5c565b61072f565b005b6101fa60048036038101906101f591906110aa565b61073d565b6040516102079190610fdc565b60405180910390f35b61022a600480360381019061022591906110aa565b610752565b6040516102379190610fdc565b60405180910390f35b610248610767565b6040516102559190610eab565b60405180910390f35b61027860048036038101906102739190610f5c565b6107f3565b005b610294600480360381019061028f9190610f5c565b610801565b6040516102a19190610fb4565b60405180910390f35b6102c460048036038101906102bf9190611129565b61090e565b005b6102e060048036038101906102db91906111c6565b610bfb565b6040516102ed9190610fdc565b60405180910390f35b5f805461030290611231565b80601f016020809104026020016040519081016040528092919081815260200182805461032e90611231565b80156103795780601f1061035057610100808354040283529160200191610379565b820191905f5260205f20905b81548152906001019060200180831161035c57829003601f168201915b505050505081565b5f8160045f3373ffffffffffffffffffffffffffffffffffffffff1673ffffffffffffffffffffffffffffffffffffffff1681526020019081526020015f205f8573ffffffffffffffffffffffffffffffffffffffff1673ffffffffffffffffffffffffffffffffffffffff1681526020019081526020015f20819055508273ffffffffffffffffffffffffffffffffffffffff163373ffffffffffffffffffffffffffffffffffffffff167f8c5be1e5ebec7d5bd14f71427d1e84f3dd0314c0f7b2291e5b200ac8c7c3b9258460405161045c9190610fdc565b60405180910390a36001905092915050565b60025481565b5f5f60045f8673ffffffffffffffffffffffffffffffffffffffff1673ffffffffffffffffffffffffffffffffffffffff1681526020019081526020015f205f3373ffffffffffffffffffffffffffffffffffffffff1673ffffffffffffffffffffffffffffffffffffffff1681526020019081526020015f205490507fffffffffffffffffffffffffffffffffffffffffffffffffffffffffffffffff81146105a1578281610524919061128e565b60045f8773ffffffffffffffffffffffffffffffffffffffff1673ffffffffffffffffffffffffffffffffffffffff1681526020019081526020015f205f3373ffffffffffffffffffffffffffffffffffffffff1673ffffffffffffffffffffffffffffffffffffffff1681526020019081526020015f20819055505b8260035f8773ffffffffffffffffffffffffffffffffffffffff1673ffffffffffffffffffffffffffffffffffffffff1681526020019081526020015f205f8282546105ed919061128e565b925050819055508260035f8673ffffffffffffffffffffffffffffffffffffffff1673ffffffffffffffffffffffffffffffffffffffff1681526020019081526020015f205f82825401925050819055508373ffffffffffffffffffffffffffffffffffffffff168573ffffffffffffffffffffffffffffffffffffffff167fddf252ad1be2c89b69c2b068fc378daa952ba7f163c4a11628f55a4df523b3ef8560405161069b9190610fdc565b60405180910390a360019150509392505050565b7f000000000000000000000000000000000000000000000000000000000000000081565b5f7f0000000000000000000000000000000000000000000000000000000000000000461461070857610703610c1b565b61072a565b7f00000000000000000000000000000000000000000000000000000000000000005b905090565b6107398282610ca5565b5050565b6003602052805f5260405f205f915090505481565b6005602052805f5260405f205f915090505481565b6001805461077490611231565b80601f01602080910402602001604051908101604052809291908181526020018280546107a090611231565b80156107eb5780601f106107c2576101008083540402835291602001916107eb565b820191905f5260205f20905b8154815290600101906020018083116107ce57829003601f168201915b505050505081565b6107fd8282610d70565b5050565b5f8160035f3373ffffffffffffffffffffffffffffffffffffffff1673ffffffffffffffffffffffffffffffffffffffff1681526020019081526020015f205f82825461084e919061128e565b925050819055508160035f8573ffffffffffffffffffffffffffffffffffffffff1673ffffffffffffffffffffffffffffffffffffffff1681526020019081526020015f205f82825401925050819055508273ffffffffffffffffffffffffffffffffffffffff163373ffffffffffffffffffffffffffffffffffffffff167fddf252ad1be2c89b69c2b068fc378daa952ba7f163c4a11628f55a4df523b3ef846040516108fc9190610fdc565b60405180910390a36001905092915050565b42841015610951576040517f08c379a00000000000000000000000000000000000000000000000000000000081526004016109489061130b565b60405180910390fd5b5f600161095c6106d3565b7f6e71edae12b1b97f4d1f60370fef10105fa2faae0126114a169c64845d6126c98a8a8a60055f8f73ffffffffffffffffffffffffffffffffffffffff1673ffffffffffffffffffffffffffffffffffffffff1681526020019081526020015f205f815480929190600101919050558b6040516020016109e196959493929190611338565b60405160208183030381529060405280519060200120604051602001610a0892919061140b565b604051602081830303815290604052805190602001208585856040515f8152602001604052604051610a3d9493929190611441565b6020604051602081039080840390855afa158015610a5d573d5f5f3e3d5ffd5b5050506020604051035190505f73ffffffffffffffffffffffffffffffffffffffff168173ffffffffffffffffffffffffffffffffffffffff1614158015610ad057508773ffffffffffffffffffffffffffffffffffffffff168173ffffffffffffffffffffffffffffffffffffffff16145b610b0f576040517f08c379a0000000000000000000000000000000000000000000000000000000008152600401610b06906114ce565b60405180910390fd5b8560045f8373ffffffffffffffffffffffffffffffffffffffff1673ffffffffffffffffffffffffffffffffffffffff1681526020019081526020015f205f8973ffffffffffffffffffffffffffffffffffffffff1673ffffffffffffffffffffffffffffffffffffffff1681526020019081526020015f2081905550508573ffffffffffffffffffffffffffffffffffffffff168773ffffffffffffffffffffffffffffffffffffffff167f8c5be1e5ebec7d5bd14f71427d1e84f3dd0314c0f7b2291e5b200ac8c7c3b92587604051610bea9190610fdc565b60405180910390a350505050505050565b6004602052815f5260405f20602052805f5260405f205f91509150505481565b5f7f8b73c3c69bb8fe3d512ecc4cf759cc79239f7b179b0ffacaa9a75d522b39400f5f604051610c4b9190611588565b60405180910390207fc89efdaa54c0f20c7adf612882df0950f5a951637e0307cdcb4c672f298b8bc64630604051602001610c8a95949392919061159e565b60405160208183030381529060405280519060200120905090565b8060025f828254610cb691906115ef565b925050819055508060035f8473ffffffffffffffffffffffffffffffffffffffff1673ffffffffffffffffffffffffffffffffffffffff1681526020019081526020015f205f82825401925050819055508173ffffffffffffffffffffffffffffffffffffffff165f73ffffffffffffffffffffffffffffffffffffffff167fddf252ad1be2c89b69c2b068fc378daa952ba7f163c4a11628f55a4df523b3ef83604051610d649190610fdc565b60405180910390a35050565b8060035f8473ffffffffffffffffffffffffffffffffffffffff1673ffffffffffffffffffffffffffffffffffffffff1681526020019081526020015f205f828254610dbc919061128e565b925050819055508060025f82825403925050819055505f73ffffffffffffffffffffffffffffffffffffffff168273ffffffffffffffffffffffffffffffffffffffff167fddf252ad1be2c89b69c2b068fc378daa952ba7f163c4a11628f55a4df523b3ef83604051610e2f9190610fdc565b60405180910390a35050565b5f81519050919050565b5f82825260208201905092915050565b8281835e5f83830152505050565b5f601f19601f8301169050919050565b5f610e7d82610e3b565b610e878185610e45565b9350610e97818560208601610e55565b610ea081610e63565b840191505092915050565b5f6020820190508181035f830152610ec38184610e73565b905092915050565b5f5ffd5b5f73ffffffffffffffffffffffffffffffffffffffff82169050919050565b5f610ef882610ecf565b9050919050565b610f0881610eee565b8114610f12575f5ffd5b50565b5f81359050610f2381610eff565b92915050565b5f819050919050565b610f3b81610f29565b8114610f45575f5ffd5b50565b5f81359050610f5681610f32565b92915050565b5f5f60408385031215610f7257610f71610ecb565b5b5f610f7f85828601610f15565b9250506020610f9085828601610f48565b9150509250929050565b5f8115159050919050565b610fae81610f9a565b82525050565b5f602082019050610fc75f830184610fa5565b92915050565b610fd681610f29565b82525050565b5f602082019050610fef5f830184610fcd565b92915050565b5f5f5f6060848603121561100c5761100b610ecb565b5b5f61101986828701610f15565b935050602061102a86828701610f15565b925050604061103b86828701610f48565b9150509250925092565b5f60ff82169050919050565b61105a81611045565b82525050565b5f6020820190506110735f830184611051565b92915050565b5f819050919050565b61108b81611079565b82525050565b5f6020820190506110a45f830184611082565b92915050565b5f602082840312156110bf576110be610ecb565b5b5f6110cc84828501610f15565b91505092915050565b6110de81611045565b81146110e8575f5ffd5b50565b5f813590506110f9816110d5565b92915050565b61110881611079565b8114611112575f5ffd5b50565b5f81359050611123816110ff565b92915050565b5f5f5f5f5f5f5f60e0888a03121561114457611143610ecb565b5b5f6111518a828b01610f15565b97505060206111628a828b01610f15565b96505060406111738a828b01610f48565b95505060606111848a828b01610f48565b94505060806111958a828b016110eb565b93505060a06111a68a828b01611115565b92505060c06111b78a828b01611115565b91505092959891949750929550565b5f5f604083850312156111dc576111db610ecb565b5b5f6111e985828601610f15565b92505060206111fa85828601610f15565b9150509250929050565b7f4e487b71000000000000000000000000000000000000000000000000000000005f52602260045260245ffd5b5f600282049050600182168061124857607f821691505b60208210810361125b5761125a611204565b5b50919050565b7f4e487b71000000000000000000000000000000000000000000000000000000005f52601160045260245ffd5b5f61129882610f29565b91506112a383610f29565b92508282039050818111156112bb576112ba611261565b5b92915050565b7f5045524d49545f444541444c494e455f455850495245440000000000000000005f82015250565b5f6112f5601783610e45565b9150611300826112c1565b602082019050919050565b5f6020820190508181035f830152611322816112e9565b9050919050565b61133281610eee565b82525050565b5f60c08201905061134b5f830189611082565b6113586020830188611329565b6113656040830187611329565b6113726060830186610fcd565b61137f6080830185610fcd565b61138c60a0830184610fcd565b979650505050505050565b5f81905092915050565b7f19010000000000000000000000000000000000000000000000000000000000005f82015250565b5f6113d5600283611397565b91506113e0826113a1565b600282019050919050565b5f819050919050565b61140561140082611079565b6113eb565b82525050565b5f611415826113c9565b915061142182856113f4565b60208201915061143182846113f4565b6020820191508190509392505050565b5f6080820190506114545f830187611082565b6114616020830186611051565b61146e6040830185611082565b61147b6060830184611082565b95945050505050565b7f494e56414c49445f5349474e45520000000000000000000000000000000000005f82015250565b5f6114b8600e83610e45565b91506114c382611484565b602082019050919050565b5f6020820190508181035f8301526114e5816114ac565b9050919050565b5f81905092915050565b5f819050815f5260205f209050919050565b5f815461151481611231565b61151e81866114ec565b9450600182165f8114611538576001811461154d5761157f565b60ff198316865281151582028601935061157f565b611556856114f6565b5f5b8381101561157757815481890152600182019150602081019050611558565b838801955050505b50505092915050565b5f6115938284611508565b915081905092915050565b5f60a0820190506115b15f830188611082565b6115be6020830187611082565b6115cb6040830186611082565b6115d86060830185610fcd565b6115e56080830184611329565b9695505050505050565b5f6115f982610f29565b915061160483610f29565b925082820190508082111561161c5761161b611261565b5b9291505056fea164736f6c634300081e000a000000000000000000000000000000000000000000000000000000000000006000000000000000000000000000000000000000000000000000000000000000a0000000000000000000000000000000000000000000000000000000000000001200000000000000000000000000000000000000000000000000000000000000094d6f636b2057455448000000000000000000000000000000000000000000000000000000000000000000000000000000000000000000000000000000000000045745544800000000000000000000000000000000000000000000000000000000",
        "nonce": "0xb64",
        "chainId": "0x14a34"
      },
      "additionalContracts": [],
      "isFixedGasLimit": false
    },
    {
      "hash": "0xe5fd0df013d07a35554e8d8771e00415b2b3f8fc3030ae0d3093a783254f2d8e",
      "transactionType": "CREATE",
      "contractName": "MockERC20",
      "contractAddress": "0xbd9d171319c8a4ba7346cbced9367334004f0e04",
      "function": null,
      "arguments": [
        "Mock WBTC",
        "WBTC",
        "8"
      ],
      "transaction": {
        "from": "0x02847d22c33f5f060bd27e69f1a413ad44cab213",
        "gas": "0x1aeefd",
        "value": "0x0",
        "input": "0x60e060405234801561000f575f5ffd5b50604051611dbf380380611dbf83398181016040528101906100319190610296565b828282825f9081610042919061052e565b508160019081610052919061052e565b508060ff1660808160ff16815250504660a0818152505061007761008960201b60201c565b60c08181525050505050505050610766565b5f7f8b73c3c69bb8fe3d512ecc4cf759cc79239f7b179b0ffacaa9a75d522b39400f5f6040516100b99190610699565b60405180910390207fc89efdaa54c0f20c7adf612882df0950f5a951637e0307cdcb4c672f298b8bc646306040516020016100f8959493929190610715565b60405160208183030381529060405280519060200120905090565b5f604051905090565b5f5ffd5b5f5ffd5b5f5ffd5b5f5ffd5b5f601f19601f8301169050919050565b7f4e487b71000000000000000000000000000000000000000000000000000000005f52604160045260245ffd5b6101728261012c565b810181811067ffffffffffffffff821117156101915761019061013c565b5b80604052505050565b5f6101a3610113565b90506101af8282610169565b919050565b5f67ffffffffffffffff8211156101ce576101cd61013c565b5b6101d78261012c565b9050602081019050919050565b8281835e5f83830152505050565b5f6102046101ff846101b4565b61019a565b9050828152602081018484840111156102205761021f610128565b5b61022b8482856101e4565b509392505050565b5f82601f83011261024757610246610124565b5b81516102578482602086016101f2565b91505092915050565b5f60ff82169050919050565b61027581610260565b811461027f575f5ffd5b50565b5f815190506102908161026c565b92915050565b5f5f5f606084860312156102ad576102ac61011c565b5b5f84015167ffffffffffffffff8111156102ca576102c9610120565b5b6102d686828701610233565b935050602084015167ffffffffffffffff8111156102f7576102f6610120565b5b61030386828701610233565b925050604061031486828701610282565b9150509250925092565b5f81519050919050565b7f4e487b71000000000000000000000000000000000000000000000000000000005f52602260045260245ffd5b5f600282049050600182168061036c57607f821691505b60208210810361037f5761037e610328565b5b50919050565b5f819050815f5260205f209050919050565b5f6020601f8301049050919050565b5f82821b905092915050565b5f600883026103e17fffffffffffffffffffffffffffffffffffffffffffffffffffffffffffffffff826103a6565b6103eb86836103a6565b95508019841693508086168417925050509392505050565b5f819050919050565b5f819050919050565b5f61042f61042a61042584610403565b61040c565b610403565b9050919050565b5f819050919050565b61044883610415565b61045c61045482610436565b8484546103b2565b825550505050565b5f5f905090565b610473610464565b61047e81848461043f565b505050565b5b818110156104a1576104965f8261046b565b600181019050610484565b5050565b601f8211156104e6576104b781610385565b6104c084610397565b810160208510156104cf578190505b6104e36104db85610397565b830182610483565b50505b505050565b5f82821c905092915050565b5f6105065f19846008026104eb565b1980831691505092915050565b5f61051e83836104f7565b9150826002028217905092915050565b6105378261031e565b67ffffffffffffffff8111156105505761054f61013c565b5b61055a8254610355565b6105658282856104a5565b5f60209050601f831160018114610596575f8415610584578287015190505b61058e8582610513565b8655506105f5565b601f1984166105a486610385565b5f5b828110156105cb578489015182556001820191506020850194506020810190506105a6565b868310156105e857848901516105e4601f8916826104f7565b8355505b6001600288020188555050505b505050505050565b5f81905092915050565b5f819050815f5260205f209050919050565b5f815461062581610355565b61062f81866105fd565b9450600182165f8114610649576001811461065e57610690565b60ff1983168652811515820286019350610690565b61066785610607565b5f5b8381101561068857815481890152600182019150602081019050610669565b838801955050505b50505092915050565b5f6106a48284610619565b915081905092915050565b5f819050919050565b6106c1816106af565b82525050565b6106d081610403565b82525050565b5f73ffffffffffffffffffffffffffffffffffffffff82169050919050565b5f6106ff826106d6565b9050919050565b61070f816106f5565b82525050565b5f60a0820190506107285f8301886106b8565b61073560208301876106b8565b61074260408301866106b8565b61074f60608301856106c7565b61075c6080830184610706565b9695505050505050565b60805160a05160c05161162f6107905f395f61070a01525f6106d601525f6106b1015261162f5ff3fe608060405234801561000f575f5ffd5b50600436106100e8575f3560e01c806370a082311161008a5780639dc29fac116100645780639dc29fac1461025e578063a9059cbb1461027a578063d505accf146102aa578063dd62ed3e146102c6576100e8565b806370a08231146101e05780637ecebe001461021057806395d89b4114610240576100e8565b806323b872dd116100c657806323b872dd14610158578063313ce567146101885780633644e515146101a657806340c10f19146101c4576100e8565b806306fdde03146100ec578063095ea7b31461010a57806318160ddd1461013a575b5f5ffd5b6100f46102f6565b6040516101019190610eab565b60405180910390f35b610124600480360381019061011f9190610f5c565b610381565b6040516101319190610fb4565b60405180910390f35b61014261046e565b60405161014f9190610fdc565b60405180910390f35b610172600480360381019061016d9190610ff5565b610474565b60405161017f9190610fb4565b60405180910390f35b6101906106af565b60405161019d9190611060565b60405180910390f35b6101ae6106d3565b6040516101bb9190611091565b60405180910390f35b6101de60048036038101906101d99190610f5c565b61072f565b005b6101fa60048036038101906101f591906110aa565b61073d565b6040516102079190610fdc565b60405180910390f35b61022a600480360381019061022591906110aa565b610752565b6040516102379190610fdc565b60405180910390f35b610248610767565b6040516102559190610eab565b60405180910390f35b61027860048036038101906102739190610f5c565b6107f3565b005b610294600480360381019061028f9190610f5c565b610801565b6040516102a19190610fb4565b60405180910390f35b6102c460048036038101906102bf9190611129565b61090e565b005b6102e060048036038101906102db91906111c6565b610bfb565b6040516102ed9190610fdc565b60405180910390f35b5f805461030290611231565b80601f016020809104026020016040519081016040528092919081815260200182805461032e90611231565b80156103795780601f1061035057610100808354040283529160200191610379565b820191905f5260205f20905b81548152906001019060200180831161035c57829003601f168201915b505050505081565b5f8160045f3373ffffffffffffffffffffffffffffffffffffffff1673ffffffffffffffffffffffffffffffffffffffff1681526020019081526020015f205f8573ffffffffffffffffffffffffffffffffffffffff1673ffffffffffffffffffffffffffffffffffffffff1681526020019081526020015f20819055508273ffffffffffffffffffffffffffffffffffffffff163373ffffffffffffffffffffffffffffffffffffffff167f8c5be1e5ebec7d5bd14f71427d1e84f3dd0314c0f7b2291e5b200ac8c7c3b9258460405161045c9190610fdc565b60405180910390a36001905092915050565b60025481565b5f5f60045f8673ffffffffffffffffffffffffffffffffffffffff1673ffffffffffffffffffffffffffffffffffffffff1681526020019081526020015f205f3373ffffffffffffffffffffffffffffffffffffffff1673ffffffffffffffffffffffffffffffffffffffff1681526020019081526020015f205490507fffffffffffffffffffffffffffffffffffffffffffffffffffffffffffffffff81146105a1578281610524919061128e565b60045f8773ffffffffffffffffffffffffffffffffffffffff1673ffffffffffffffffffffffffffffffffffffffff1681526020019081526020015f205f3373ffffffffffffffffffffffffffffffffffffffff1673ffffffffffffffffffffffffffffffffffffffff1681526020019081526020015f20819055505b8260035f8773ffffffffffffffffffffffffffffffffffffffff1673ffffffffffffffffffffffffffffffffffffffff1681526020019081526020015f205f8282546105ed919061128e565b925050819055508260035f8673ffffffffffffffffffffffffffffffffffffffff1673ffffffffffffffffffffffffffffffffffffffff1681526020019081526020015f205f82825401925050819055508373ffffffffffffffffffffffffffffffffffffffff168573ffffffffffffffffffffffffffffffffffffffff167fddf252ad1be2c89b69c2b068fc378daa952ba7f163c4a11628f55a4df523b3ef8560405161069b9190610fdc565b60405180910390a360019150509392505050565b7f000000000000000000000000000000000000000000000000000000000000000081565b5f7f0000000000000000000000000000000000000000000000000000000000000000461461070857610703610c1b565b61072a565b7f00000000000000000000000000000000000000000000000000000000000000005b905090565b6107398282610ca5565b5050565b6003602052805f5260405f205f915090505481565b6005602052805f5260405f205f915090505481565b6001805461077490611231565b80601f01602080910402602001604051908101604052809291908181526020018280546107a090611231565b80156107eb5780601f106107c2576101008083540402835291602001916107eb565b820191905f5260205f20905b8154815290600101906020018083116107ce57829003601f168201915b505050505081565b6107fd8282610d70565b5050565b5f8160035f3373ffffffffffffffffffffffffffffffffffffffff1673ffffffffffffffffffffffffffffffffffffffff1681526020019081526020015f205f82825461084e919061128e565b925050819055508160035f8573ffffffffffffffffffffffffffffffffffffffff1673ffffffffffffffffffffffffffffffffffffffff1681526020019081526020015f205f82825401925050819055508273ffffffffffffffffffffffffffffffffffffffff163373ffffffffffffffffffffffffffffffffffffffff167fddf252ad1be2c89b69c2b068fc378daa952ba7f163c4a11628f55a4df523b3ef846040516108fc9190610fdc565b60405180910390a36001905092915050565b42841015610951576040517f08c379a00000000000000000000000000000000000000000000000000000000081526004016109489061130b565b60405180910390fd5b5f600161095c6106d3565b7f6e71edae12b1b97f4d1f60370fef10105fa2faae0126114a169c64845d6126c98a8a8a60055f8f73ffffffffffffffffffffffffffffffffffffffff1673ffffffffffffffffffffffffffffffffffffffff1681526020019081526020015f205f815480929190600101919050558b6040516020016109e196959493929190611338565b60405160208183030381529060405280519060200120604051602001610a0892919061140b565b604051602081830303815290604052805190602001208585856040515f8152602001604052604051610a3d9493929190611441565b6020604051602081039080840390855afa158015610a5d573d5f5f3e3d5ffd5b5050506020604051035190505f73ffffffffffffffffffffffffffffffffffffffff168173ffffffffffffffffffffffffffffffffffffffff1614158015610ad057508773ffffffffffffffffffffffffffffffffffffffff168173ffffffffffffffffffffffffffffffffffffffff16145b610b0f576040517f08c379a0000000000000000000000000000000000000000000000000000000008152600401610b06906114ce565b60405180910390fd5b8560045f8373ffffffffffffffffffffffffffffffffffffffff1673ffffffffffffffffffffffffffffffffffffffff1681526020019081526020015f205f8973ffffffffffffffffffffffffffffffffffffffff1673ffffffffffffffffffffffffffffffffffffffff1681526020019081526020015f2081905550508573ffffffffffffffffffffffffffffffffffffffff168773ffffffffffffffffffffffffffffffffffffffff167f8c5be1e5ebec7d5bd14f71427d1e84f3dd0314c0f7b2291e5b200ac8c7c3b92587604051610bea9190610fdc565b60405180910390a350505050505050565b6004602052815f5260405f20602052805f5260405f205f91509150505481565b5f7f8b73c3c69bb8fe3d512ecc4cf759cc79239f7b179b0ffacaa9a75d522b39400f5f604051610c4b9190611588565b60405180910390207fc89efdaa54c0f20c7adf612882df0950f5a951637e0307cdcb4c672f298b8bc64630604051602001610c8a95949392919061159e565b60405160208183030381529060405280519060200120905090565b8060025f828254610cb691906115ef565b925050819055508060035f8473ffffffffffffffffffffffffffffffffffffffff1673ffffffffffffffffffffffffffffffffffffffff1681526020019081526020015f205f82825401925050819055508173ffffffffffffffffffffffffffffffffffffffff165f73ffffffffffffffffffffffffffffffffffffffff167fddf252ad1be2c89b69c2b068fc378daa952ba7f163c4a11628f55a4df523b3ef83604051610d649190610fdc565b60405180910390a35050565b8060035f8473ffffffffffffffffffffffffffffffffffffffff1673ffffffffffffffffffffffffffffffffffffffff1681526020019081526020015f205f828254610dbc919061128e565b925050819055508060025f82825403925050819055505f73ffffffffffffffffffffffffffffffffffffffff168273ffffffffffffffffffffffffffffffffffffffff167fddf252ad1be2c89b69c2b068fc378daa952ba7f163c4a11628f55a4df523b3ef83604051610e2f9190610fdc565b60405180910390a35050565b5f81519050919050565b5f82825260208201905092915050565b8281835e5f83830152505050565b5f601f19601f8301169050919050565b5f610e7d82610e3b565b610e878185610e45565b9350610e97818560208601610e55565b610ea081610e63565b840191505092915050565b5f6020820190508181035f830152610ec38184610e73565b905092915050565b5f5ffd5b5f73ffffffffffffffffffffffffffffffffffffffff82169050919050565b5f610ef882610ecf565b9050919050565b610f0881610eee565b8114610f12575f5ffd5b50565b5f81359050610f2381610eff565b92915050565b5f819050919050565b610f3b81610f29565b8114610f45575f5ffd5b50565b5f81359050610f5681610f32565b92915050565b5f5f60408385031215610f7257610f71610ecb565b5b5f610f7f85828601610f15565b9250506020610f9085828601610f48565b9150509250929050565b5f8115159050919050565b610fae81610f9a565b82525050565b5f602082019050610fc75f830184610fa5565b92915050565b610fd681610f29565b82525050565b5f602082019050610fef5f830184610fcd565b92915050565b5f5f5f6060848603121561100c5761100b610ecb565b5b5f61101986828701610f15565b935050602061102a86828701610f15565b925050604061103b86828701610f48565b9150509250925092565b5f60ff82169050919050565b61105a81611045565b82525050565b5f6020820190506110735f830184611051565b92915050565b5f819050919050565b61108b81611079565b82525050565b5f6020820190506110a45f830184611082565b92915050565b5f602082840312156110bf576110be610ecb565b5b5f6110cc84828501610f15565b91505092915050565b6110de81611045565b81146110e8575f5ffd5b50565b5f813590506110f9816110d5565b92915050565b61110881611079565b8114611112575f5ffd5b50565b5f81359050611123816110ff565b92915050565b5f5f5f5f5f5f5f60e0888a03121561114457611143610ecb565b5b5f6111518a828b01610f15565b97505060206111628a828b01610f15565b96505060406111738a828b01610f48565b95505060606111848a828b01610f48565b94505060806111958a828b016110eb565b93505060a06111a68a828b01611115565b92505060c06111b78a828b01611115565b91505092959891949750929550565b5f5f604083850312156111dc576111db610ecb565b5b5f6111e985828601610f15565b92505060206111fa85828601610f15565b9150509250929050565b7f4e487b71000000000000000000000000000000000000000000000000000000005f52602260045260245ffd5b5f600282049050600182168061124857607f821691505b60208210810361125b5761125a611204565b5b50919050565b7f4e487b71000000000000000000000000000000000000000000000000000000005f52601160045260245ffd5b5f61129882610f29565b91506112a383610f29565b92508282039050818111156112bb576112ba611261565b5b92915050565b7f5045524d49545f444541444c494e455f455850495245440000000000000000005f82015250565b5f6112f5601783610e45565b9150611300826112c1565b602082019050919050565b5f6020820190508181035f830152611322816112e9565b9050919050565b61133281610eee565b82525050565b5f60c08201905061134b5f830189611082565b6113586020830188611329565b6113656040830187611329565b6113726060830186610fcd565b61137f6080830185610fcd565b61138c60a0830184610fcd565b979650505050505050565b5f81905092915050565b7f19010000000000000000000000000000000000000000000000000000000000005f82015250565b5f6113d5600283611397565b91506113e0826113a1565b600282019050919050565b5f819050919050565b61140561140082611079565b6113eb565b82525050565b5f611415826113c9565b915061142182856113f4565b60208201915061143182846113f4565b6020820191508190509392505050565b5f6080820190506114545f830187611082565b6114616020830186611051565b61146e6040830185611082565b61147b6060830184611082565b95945050505050565b7f494e56414c49445f5349474e45520000000000000000000000000000000000005f82015250565b5f6114b8600e83610e45565b91506114c382611484565b602082019050919050565b5f6020820190508181035f8301526114e5816114ac565b9050919050565b5f81905092915050565b5f819050815f5260205f209050919050565b5f815461151481611231565b61151e81866114ec565b9450600182165f8114611538576001811461154d5761157f565b60ff198316865281151582028601935061157f565b611556856114f6565b5f5b8381101561157757815481890152600182019150602081019050611558565b838801955050505b50505092915050565b5f6115938284611508565b915081905092915050565b5f60a0820190506115b15f830188611082565b6115be6020830187611082565b6115cb6040830186611082565b6115d86060830185610fcd565b6115e56080830184611329565b9695505050505050565b5f6115f982610f29565b915061160483610f29565b925082820190508082111561161c5761161b611261565b5b9291505056fea164736f6c634300081e000a000000000000000000000000000000000000000000000000000000000000006000000000000000000000000000000000000000000000000000000000000000a0000000000000000000000000000000000000000000000000000000000000000800000000000000000000000000000000000000000000000000000000000000094d6f636b2057425443000000000000000000000000000000000000000000000000000000000000000000000000000000000000000000000000000000000000045742544300000000000000000000000000000000000000000000000000000000",
        "nonce": "0xb65",
        "chainId": "0x14a34"
      },
      "additionalContracts": [],
      "isFixedGasLimit": false
    },
    {
      "hash": "0x5125eb6fd2c5224695c949cc01111f54ae38eb49e91451867774e852ecfb0a6d",
      "transactionType": "CREATE",
      "contractName": "MockERC20",
      "contractAddress": "0x250cd0e024137b19c52e401379d53ddae16c378f",
      "function": null,
      "arguments": [
        "Mock DAI",
        "DAI",
        "18"
      ],
      "transaction": {
        "from": "0x02847d22c33f5f060bd27e69f1a413ad44cab213",
        "gas": "0x1aeede",
        "value": "0x0",
        "input": "0x60e060405234801561000f575f5ffd5b50604051611dbf380380611dbf83398181016040528101906100319190610296565b828282825f9081610042919061052e565b508160019081610052919061052e565b508060ff1660808160ff16815250504660a0818152505061007761008960201b60201c565b60c08181525050505050505050610766565b5f7f8b73c3c69bb8fe3d512ecc4cf759cc79239f7b179b0ffacaa9a75d522b39400f5f6040516100b99190610699565b60405180910390207fc89efdaa54c0f20c7adf612882df0950f5a951637e0307cdcb4c672f298b8bc646306040516020016100f8959493929190610715565b60405160208183030381529060405280519060200120905090565b5f604051905090565b5f5ffd5b5f5ffd5b5f5ffd5b5f5ffd5b5f601f19601f8301169050919050565b7f4e487b71000000000000000000000000000000000000000000000000000000005f52604160045260245ffd5b6101728261012c565b810181811067ffffffffffffffff821117156101915761019061013c565b5b80604052505050565b5f6101a3610113565b90506101af8282610169565b919050565b5f67ffffffffffffffff8211156101ce576101cd61013c565b5b6101d78261012c565b9050602081019050919050565b8281835e5f83830152505050565b5f6102046101ff846101b4565b61019a565b9050828152602081018484840111156102205761021f610128565b5b61022b8482856101e4565b509392505050565b5f82601f83011261024757610246610124565b5b81516102578482602086016101f2565b91505092915050565b5f60ff82169050919050565b61027581610260565b811461027f575f5ffd5b50565b5f815190506102908161026c565b92915050565b5f5f5f606084860312156102ad576102ac61011c565b5b5f84015167ffffffffffffffff8111156102ca576102c9610120565b5b6102d686828701610233565b935050602084015167ffffffffffffffff8111156102f7576102f6610120565b5b61030386828701610233565b925050604061031486828701610282565b9150509250925092565b5f81519050919050565b7f4e487b71000000000000000000000000000000000000000000000000000000005f52602260045260245ffd5b5f600282049050600182168061036c57607f821691505b60208210810361037f5761037e610328565b5b50919050565b5f819050815f5260205f209050919050565b5f6020601f8301049050919050565b5f82821b905092915050565b5f600883026103e17fffffffffffffffffffffffffffffffffffffffffffffffffffffffffffffffff826103a6565b6103eb86836103a6565b95508019841693508086168417925050509392505050565b5f819050919050565b5f819050919050565b5f61042f61042a61042584610403565b61040c565b610403565b9050919050565b5f819050919050565b61044883610415565b61045c61045482610436565b8484546103b2565b825550505050565b5f5f905090565b610473610464565b61047e81848461043f565b505050565b5b818110156104a1576104965f8261046b565b600181019050610484565b5050565b601f8211156104e6576104b781610385565b6104c084610397565b810160208510156104cf578190505b6104e36104db85610397565b830182610483565b50505b505050565b5f82821c905092915050565b5f6105065f19846008026104eb565b1980831691505092915050565b5f61051e83836104f7565b9150826002028217905092915050565b6105378261031e565b67ffffffffffffffff8111156105505761054f61013c565b5b61055a8254610355565b6105658282856104a5565b5f60209050601f831160018114610596575f8415610584578287015190505b61058e8582610513565b8655506105f5565b601f1984166105a486610385565b5f5b828110156105cb578489015182556001820191506020850194506020810190506105a6565b868310156105e857848901516105e4601f8916826104f7565b8355505b6001600288020188555050505b505050505050565b5f81905092915050565b5f819050815f5260205f209050919050565b5f815461062581610355565b61062f81866105fd565b9450600182165f8114610649576001811461065e57610690565b60ff1983168652811515820286019350610690565b61066785610607565b5f5b8381101561068857815481890152600182019150602081019050610669565b838801955050505b50505092915050565b5f6106a48284610619565b915081905092915050565b5f819050919050565b6106c1816106af565b82525050565b6106d081610403565b82525050565b5f73ffffffffffffffffffffffffffffffffffffffff82169050919050565b5f6106ff826106d6565b9050919050565b61070f816106f5565b82525050565b5f60a0820190506107285f8301886106b8565b61073560208301876106b8565b61074260408301866106b8565b61074f60608301856106c7565b61075c6080830184610706565b9695505050505050565b60805160a05160c05161162f6107905f395f61070a01525f6106d601525f6106b1015261162f5ff3fe608060405234801561000f575f5ffd5b50600436106100e8575f3560e01c806370a082311161008a5780639dc29fac116100645780639dc29fac1461025e578063a9059cbb1461027a578063d505accf146102aa578063dd62ed3e146102c6576100e8565b806370a08231146101e05780637ecebe001461021057806395d89b4114610240576100e8565b806323b872dd116100c657806323b872dd14610158578063313ce567146101885780633644e515146101a657806340c10f19146101c4576100e8565b806306fdde03146100ec578063095ea7b31461010a57806318160ddd1461013a575b5f5ffd5b6100f46102f6565b6040516101019190610eab565b60405180910390f35b610124600480360381019061011f9190610f5c565b610381565b6040516101319190610fb4565b60405180910390f35b61014261046e565b60405161014f9190610fdc565b60405180910390f35b610172600480360381019061016d9190610ff5565b610474565b60405161017f9190610fb4565b60405180910390f35b6101906106af565b60405161019d9190611060565b60405180910390f35b6101ae6106d3565b6040516101bb9190611091565b60405180910390f35b6101de60048036038101906101d99190610f5c565b61072f565b005b6101fa60048036038101906101f591906110aa565b61073d565b6040516102079190610fdc565b60405180910390f35b61022a600480360381019061022591906110aa565b610752565b6040516102379190610fdc565b60405180910390f35b610248610767565b6040516102559190610eab565b60405180910390f35b61027860048036038101906102739190610f5c565b6107f3565b005b610294600480360381019061028f9190610f5c565b610801565b6040516102a19190610fb4565b60405180910390f35b6102c460048036038101906102bf9190611129565b61090e565b005b6102e060048036038101906102db91906111c6565b610bfb565b6040516102ed9190610fdc565b60405180910390f35b5f805461030290611231565b80601f016020809104026020016040519081016040528092919081815260200182805461032e90611231565b80156103795780601f1061035057610100808354040283529160200191610379565b820191905f5260205f20905b81548152906001019060200180831161035c57829003601f168201915b505050505081565b5f8160045f3373ffffffffffffffffffffffffffffffffffffffff1673ffffffffffffffffffffffffffffffffffffffff1681526020019081526020015f205f8573ffffffffffffffffffffffffffffffffffffffff1673ffffffffffffffffffffffffffffffffffffffff1681526020019081526020015f20819055508273ffffffffffffffffffffffffffffffffffffffff163373ffffffffffffffffffffffffffffffffffffffff167f8c5be1e5ebec7d5bd14f71427d1e84f3dd0314c0f7b2291e5b200ac8c7c3b9258460405161045c9190610fdc565b60405180910390a36001905092915050565b60025481565b5f5f60045f8673ffffffffffffffffffffffffffffffffffffffff1673ffffffffffffffffffffffffffffffffffffffff1681526020019081526020015f205f3373ffffffffffffffffffffffffffffffffffffffff1673ffffffffffffffffffffffffffffffffffffffff1681526020019081526020015f205490507fffffffffffffffffffffffffffffffffffffffffffffffffffffffffffffffff81146105a1578281610524919061128e565b60045f8773ffffffffffffffffffffffffffffffffffffffff1673ffffffffffffffffffffffffffffffffffffffff1681526020019081526020015f205f3373ffffffffffffffffffffffffffffffffffffffff1673ffffffffffffffffffffffffffffffffffffffff1681526020019081526020015f20819055505b8260035f8773ffffffffffffffffffffffffffffffffffffffff1673ffffffffffffffffffffffffffffffffffffffff1681526020019081526020015f205f8282546105ed919061128e565b925050819055508260035f8673ffffffffffffffffffffffffffffffffffffffff1673ffffffffffffffffffffffffffffffffffffffff1681526020019081526020015f205f82825401925050819055508373ffffffffffffffffffffffffffffffffffffffff168573ffffffffffffffffffffffffffffffffffffffff167fddf252ad1be2c89b69c2b068fc378daa952ba7f163c4a11628f55a4df523b3ef8560405161069b9190610fdc565b60405180910390a360019150509392505050565b7f000000000000000000000000000000000000000000000000000000000000000081565b5f7f0000000000000000000000000000000000000000000000000000000000000000461461070857610703610c1b565b61072a565b7f00000000000000000000000000000000000000000000000000000000000000005b905090565b6107398282610ca5565b5050565b6003602052805f5260405f205f915090505481565b6005602052805f5260405f205f915090505481565b6001805461077490611231565b80601f01602080910402602001604051908101604052809291908181526020018280546107a090611231565b80156107eb5780601f106107c2576101008083540402835291602001916107eb565b820191905f5260205f20905b8154815290600101906020018083116107ce57829003601f168201915b505050505081565b6107fd8282610d70565b5050565b5f8160035f3373ffffffffffffffffffffffffffffffffffffffff1673ffffffffffffffffffffffffffffffffffffffff1681526020019081526020015f205f82825461084e919061128e565b925050819055508160035f8573ffffffffffffffffffffffffffffffffffffffff1673ffffffffffffffffffffffffffffffffffffffff1681526020019081526020015f205f82825401925050819055508273ffffffffffffffffffffffffffffffffffffffff163373ffffffffffffffffffffffffffffffffffffffff167fddf252ad1be2c89b69c2b068fc378daa952ba7f163c4a11628f55a4df523b3ef846040516108fc9190610fdc565b60405180910390a36001905092915050565b42841015610951576040517f08c379a00000000000000000000000000000000000000000000000000000000081526004016109489061130b565b60405180910390fd5b5f600161095c6106d3565b7f6e71edae12b1b97f4d1f60370fef10105fa2faae0126114a169c64845d6126c98a8a8a60055f8f73ffffffffffffffffffffffffffffffffffffffff1673ffffffffffffffffffffffffffffffffffffffff1681526020019081526020015f205f815480929190600101919050558b6040516020016109e196959493929190611338565b60405160208183030381529060405280519060200120604051602001610a0892919061140b565b604051602081830303815290604052805190602001208585856040515f8152602001604052604051610a3d9493929190611441565b6020604051602081039080840390855afa158015610a5d573d5f5f3e3d5ffd5b5050506020604051035190505f73ffffffffffffffffffffffffffffffffffffffff168173ffffffffffffffffffffffffffffffffffffffff1614158015610ad057508773ffffffffffffffffffffffffffffffffffffffff168173ffffffffffffffffffffffffffffffffffffffff16145b610b0f576040517f08c379a0000000000000000000000000000000000000000000000000000000008152600401610b06906114ce565b60405180910390fd5b8560045f8373ffffffffffffffffffffffffffffffffffffffff1673ffffffffffffffffffffffffffffffffffffffff1681526020019081526020015f205f8973ffffffffffffffffffffffffffffffffffffffff1673ffffffffffffffffffffffffffffffffffffffff1681526020019081526020015f2081905550508573ffffffffffffffffffffffffffffffffffffffff168773ffffffffffffffffffffffffffffffffffffffff167f8c5be1e5ebec7d5bd14f71427d1e84f3dd0314c0f7b2291e5b200ac8c7c3b92587604051610bea9190610fdc565b60405180910390a350505050505050565b6004602052815f5260405f20602052805f5260405f205f91509150505481565b5f7f8b73c3c69bb8fe3d512ecc4cf759cc79239f7b179b0ffacaa9a75d522b39400f5f604051610c4b9190611588565b60405180910390207fc89efdaa54c0f20c7adf612882df0950f5a951637e0307cdcb4c672f298b8bc64630604051602001610c8a95949392919061159e565b60405160208183030381529060405280519060200120905090565b8060025f828254610cb691906115ef565b925050819055508060035f8473ffffffffffffffffffffffffffffffffffffffff1673ffffffffffffffffffffffffffffffffffffffff1681526020019081526020015f205f82825401925050819055508173ffffffffffffffffffffffffffffffffffffffff165f73ffffffffffffffffffffffffffffffffffffffff167fddf252ad1be2c89b69c2b068fc378daa952ba7f163c4a11628f55a4df523b3ef83604051610d649190610fdc565b60405180910390a35050565b8060035f8473ffffffffffffffffffffffffffffffffffffffff1673ffffffffffffffffffffffffffffffffffffffff1681526020019081526020015f205f828254610dbc919061128e565b925050819055508060025f82825403925050819055505f73ffffffffffffffffffffffffffffffffffffffff168273ffffffffffffffffffffffffffffffffffffffff167fddf252ad1be2c89b69c2b068fc378daa952ba7f163c4a11628f55a4df523b3ef83604051610e2f9190610fdc565b60405180910390a35050565b5f81519050919050565b5f82825260208201905092915050565b8281835e5f83830152505050565b5f601f19601f8301169050919050565b5f610e7d82610e3b565b610e878185610e45565b9350610e97818560208601610e55565b610ea081610e63565b840191505092915050565b5f6020820190508181035f830152610ec38184610e73565b905092915050565b5f5ffd5b5f73ffffffffffffffffffffffffffffffffffffffff82169050919050565b5f610ef882610ecf565b9050919050565b610f0881610eee565b8114610f12575f5ffd5b50565b5f81359050610f2381610eff565b92915050565b5f819050919050565b610f3b81610f29565b8114610f45575f5ffd5b50565b5f81359050610f5681610f32565b92915050565b5f5f60408385031215610f7257610f71610ecb565b5b5f610f7f85828601610f15565b9250506020610f9085828601610f48565b9150509250929050565b5f8115159050919050565b610fae81610f9a565b82525050565b5f602082019050610fc75f830184610fa5565b92915050565b610fd681610f29565b82525050565b5f602082019050610fef5f830184610fcd565b92915050565b5f5f5f6060848603121561100c5761100b610ecb565b5b5f61101986828701610f15565b935050602061102a86828701610f15565b925050604061103b86828701610f48565b9150509250925092565b5f60ff82169050919050565b61105a81611045565b82525050565b5f6020820190506110735f830184611051565b92915050565b5f819050919050565b61108b81611079565b82525050565b5f6020820190506110a45f830184611082565b92915050565b5f602082840312156110bf576110be610ecb565b5b5f6110cc84828501610f15565b91505092915050565b6110de81611045565b81146110e8575f5ffd5b50565b5f813590506110f9816110d5565b92915050565b61110881611079565b8114611112575f5ffd5b50565b5f81359050611123816110ff565b92915050565b5f5f5f5f5f5f5f60e0888a03121561114457611143610ecb565b5b5f6111518a828b01610f15565b97505060206111628a828b01610f15565b96505060406111738a828b01610f48565b95505060606111848a828b01610f48565b94505060806111958a828b016110eb565b93505060a06111a68a828b01611115565b92505060c06111b78a828b01611115565b91505092959891949750929550565b5f5f604083850312156111dc576111db610ecb565b5b5f6111e985828601610f15565b92505060206111fa85828601610f15565b9150509250929050565b7f4e487b71000000000000000000000000000000000000000000000000000000005f52602260045260245ffd5b5f600282049050600182168061124857607f821691505b60208210810361125b5761125a611204565b5b50919050565b7f4e487b71000000000000000000000000000000000000000000000000000000005f52601160045260245ffd5b5f61129882610f29565b91506112a383610f29565b92508282039050818111156112bb576112ba611261565b5b92915050565b7f5045524d49545f444541444c494e455f455850495245440000000000000000005f82015250565b5f6112f5601783610e45565b9150611300826112c1565b602082019050919050565b5f6020820190508181035f830152611322816112e9565b9050919050565b61133281610eee565b82525050565b5f60c08201905061134b5f830189611082565b6113586020830188611329565b6113656040830187611329565b6113726060830186610fcd565b61137f6080830185610fcd565b61138c60a0830184610fcd565b979650505050505050565b5f81905092915050565b7f19010000000000000000000000000000000000000000000000000000000000005f82015250565b5f6113d5600283611397565b91506113e0826113a1565b600282019050919050565b5f819050919050565b61140561140082611079565b6113eb565b82525050565b5f611415826113c9565b915061142182856113f4565b60208201915061143182846113f4565b6020820191508190509392505050565b5f6080820190506114545f830187611082565b6114616020830186611051565b61146e6040830185611082565b61147b6060830184611082565b95945050505050565b7f494e56414c49445f5349474e45520000000000000000000000000000000000005f82015250565b5f6114b8600e83610e45565b91506114c382611484565b602082019050919050565b5f6020820190508181035f8301526114e5816114ac565b9050919050565b5f81905092915050565b5f819050815f5260205f209050919050565b5f815461151481611231565b61151e81866114ec565b9450600182165f8114611538576001811461154d5761157f565b60ff198316865281151582028601935061157f565b611556856114f6565b5f5b8381101561157757815481890152600182019150602081019050611558565b838801955050505b50505092915050565b5f6115938284611508565b915081905092915050565b5f60a0820190506115b15f830188611082565b6115be6020830187611082565b6115cb6040830186611082565b6115d86060830185610fcd565b6115e56080830184611329565b9695505050505050565b5f6115f982610f29565b915061160483610f29565b925082820190508082111561161c5761161b611261565b5b9291505056fea164736f6c634300081e000a000000000000000000000000000000000000000000000000000000000000006000000000000000000000000000000000000000000000000000000000000000a0000000000000000000000000000000000000000000000000000000000000001200000000000000000000000000000000000000000000000000000000000000084d6f636b2044414900000000000000000000000000000000000000000000000000000000000000000000000000000000000000000000000000000000000000034441490000000000000000000000000000000000000000000000000000000000",
        "nonce": "0xb66",
        "chainId": "0x14a34"
      },
      "additionalContracts": [],
      "isFixedGasLimit": false
    },
    {
      "hash": "0x67c6a02c8c61b932523b1183661ec954192f79b2a74cea7c1f619421788ec922",
      "transactionType": "CALL",
      "contractName": "MockERC20",
      "contractAddress": "0xa23c4ff095a7c6687747797a380e52e71d891d7d",
      "function": "mint(address,uint256)",
      "arguments": [
        "0x02847D22C33f5F060Bd27e69F1a413AD44cab213",
        "10000000000000"
      ],
      "transaction": {
        "from": "0x02847d22c33f5f060bd27e69f1a413ad44cab213",
        "to": "0xa23c4ff095a7c6687747797a380e52e71d891d7d",
        "gas": "0x17378",
        "value": "0x0",
        "input": "0x40c10f1900000000000000000000000002847d22c33f5f060bd27e69f1a413ad44cab213000000000000000000000000000000000000000000000000000009184e72a000",
        "nonce": "0xb67",
        "chainId": "0x14a34"
      },
      "additionalContracts": [],
      "isFixedGasLimit": false
    },
    {
      "hash": "0x42d9c5c7aed7a4d2a9eb99cfef8f59943a446bc46005274af4e06a3d0783bdeb",
      "transactionType": "CALL",
      "contractName": "MockERC20",
      "contractAddress": "0x4b0c697aef1ffd55b912091e7fc2ba3771ab11ef",
      "function": "mint(address,uint256)",
      "arguments": [
        "0x02847D22C33f5F060Bd27e69F1a413AD44cab213",
        "10000000000000"
      ],
      "transaction": {
        "from": "0x02847d22c33f5f060bd27e69f1a413ad44cab213",
        "to": "0x4b0c697aef1ffd55b912091e7fc2ba3771ab11ef",
        "gas": "0x17378",
        "value": "0x0",
        "input": "0x40c10f1900000000000000000000000002847d22c33f5f060bd27e69f1a413ad44cab213000000000000000000000000000000000000000000000000000009184e72a000",
        "nonce": "0xb68",
        "chainId": "0x14a34"
      },
      "additionalContracts": [],
      "isFixedGasLimit": false
    },
    {
      "hash": "0x0f43ee9a94aac6c0c6b1fc03e50ba5eb6831df5c4730e15a3cfb18eec144afbd",
      "transactionType": "CALL",
      "contractName": "MockERC20",
      "contractAddress": "0x68e4f80d47b030f840f468ddfbd927c5a1746768",
      "function": "mint(address,uint256)",
      "arguments": [
        "0x02847D22C33f5F060Bd27e69F1a413AD44cab213",
        "10000000000000000000000000"
      ],
      "transaction": {
        "from": "0x02847d22c33f5f060bd27e69f1a413ad44cab213",
        "to": "0x68e4f80d47b030f840f468ddfbd927c5a1746768",
        "gas": "0x173a9",
        "value": "0x0",
        "input": "0x40c10f1900000000000000000000000002847d22c33f5f060bd27e69f1a413ad44cab213000000000000000000000000000000000000000000084595161401484a000000",
        "nonce": "0xb69",
        "chainId": "0x14a34"
      },
      "additionalContracts": [],
      "isFixedGasLimit": false
    },
    {
      "hash": "0x4fd0d8be69860dc01dfd60199a0cb5994074e617e6e91d7a4ae8506475516341",
      "transactionType": "CALL",
      "contractName": "MockERC20",
      "contractAddress": "0xbd9d171319c8a4ba7346cbced9367334004f0e04",
      "function": "mint(address,uint256)",
      "arguments": [
        "0x02847D22C33f5F060Bd27e69F1a413AD44cab213",
        "1000000000000000"
      ],
      "transaction": {
        "from": "0x02847d22c33f5f060bd27e69f1a413ad44cab213",
        "to": "0xbd9d171319c8a4ba7346cbced9367334004f0e04",
        "gas": "0x17387",
        "value": "0x0",
        "input": "0x40c10f1900000000000000000000000002847d22c33f5f060bd27e69f1a413ad44cab21300000000000000000000000000000000000000000000000000038d7ea4c68000",
        "nonce": "0xb6a",
        "chainId": "0x14a34"
      },
      "additionalContracts": [],
      "isFixedGasLimit": false
    },
    {
      "hash": "0xb28f12828c2384a6b7525fcbbe8e6d64cdbc12dd6b1eb25b0017ac352fb0d69f",
      "transactionType": "CALL",
      "contractName": "MockERC20",
      "contractAddress": "0x250cd0e024137b19c52e401379d53ddae16c378f",
      "function": "mint(address,uint256)",
      "arguments": [
        "0x02847D22C33f5F060Bd27e69F1a413AD44cab213",
        "10000000000000000000000000"
      ],
      "transaction": {
        "from": "0x02847d22c33f5f060bd27e69f1a413ad44cab213",
        "to": "0x250cd0e024137b19c52e401379d53ddae16c378f",
        "gas": "0x173a9",
        "value": "0x0",
        "input": "0x40c10f1900000000000000000000000002847d22c33f5f060bd27e69f1a413ad44cab213000000000000000000000000000000000000000000084595161401484a000000",
        "nonce": "0xb6b",
        "chainId": "0x14a34"
      },
      "additionalContracts": [],
      "isFixedGasLimit": false
    },
    {
      "hash": "0x73ff07eae32c48a2090044351f1ddcfe68d8b26b2eb321f7169531f76c8c3228",
      "transactionType": "CALL",
      "contractName": "MockERC20",
      "contractAddress": "0xa23c4ff095a7c6687747797a380e52e71d891d7d",
      "function": "approve(address,uint256)",
      "arguments": [
        "0x000000000022D473030F116dDEE9F6B43aC78BA3",
        "115792089237316195423570985008687907853269984665640564039457584007913129639935"
      ],
      "transaction": {
        "from": "0x02847d22c33f5f060bd27e69f1a413ad44cab213",
        "to": "0xa23c4ff095a7c6687747797a380e52e71d891d7d",
        "gas": "0x10c6b",
        "value": "0x0",
        "input": "0x095ea7b3000000000000000000000000000000000022d473030f116ddee9f6b43ac78ba3ffffffffffffffffffffffffffffffffffffffffffffffffffffffffffffffff",
        "nonce": "0xb6c",
        "chainId": "0x14a34"
      },
      "additionalContracts": [],
      "isFixedGasLimit": false
    },
    {
      "hash": "0x25db133a34a0d025436e9f7b0f755b684b4e3395a984e85edf45f85f8d1927c4",
      "transactionType": "CALL",
      "contractName": null,
      "contractAddress": "0x000000000022d473030f116ddee9f6b43ac78ba3",
      "function": "approve(address,address,uint160,uint48)",
      "arguments": [
        "0xA23C4Ff095A7c6687747797A380e52e71d891D7D",
        "0x4B2C77d209D3405F41a037Ec6c77F7F5b8e2ca80",
        "1461501637330902918203684832716283019655932542975",
        "281474976710655"
      ],
      "transaction": {
        "from": "0x02847d22c33f5f060bd27e69f1a413ad44cab213",
        "to": "0x000000000022d473030f116ddee9f6b43ac78ba3",
        "gas": "0x1112d",
        "value": "0x0",
        "input": "0x87517c45000000000000000000000000a23c4ff095a7c6687747797a380e52e71d891d7d0000000000000000000000004b2c77d209d3405f41a037ec6c77f7f5b8e2ca80000000000000000000000000ffffffffffffffffffffffffffffffffffffffff0000000000000000000000000000000000000000000000000000ffffffffffff",
        "nonce": "0xb6d",
        "chainId": "0x14a34"
      },
      "additionalContracts": [],
      "isFixedGasLimit": false
    },
    {
      "hash": "0x1b93c9c9c3f8719e87e5f1d4033990c74aee34d8440a41960f8e71f5dfffdf34",
      "transactionType": "CALL",
      "contractName": "MockERC20",
      "contractAddress": "0x4b0c697aef1ffd55b912091e7fc2ba3771ab11ef",
      "function": "approve(address,uint256)",
      "arguments": [
        "0x000000000022D473030F116dDEE9F6B43aC78BA3",
        "115792089237316195423570985008687907853269984665640564039457584007913129639935"
      ],
      "transaction": {
        "from": "0x02847d22c33f5f060bd27e69f1a413ad44cab213",
        "to": "0x4b0c697aef1ffd55b912091e7fc2ba3771ab11ef",
        "gas": "0x10c6b",
        "value": "0x0",
        "input": "0x095ea7b3000000000000000000000000000000000022d473030f116ddee9f6b43ac78ba3ffffffffffffffffffffffffffffffffffffffffffffffffffffffffffffffff",
        "nonce": "0xb6e",
        "chainId": "0x14a34"
      },
      "additionalContracts": [],
      "isFixedGasLimit": false
    },
    {
      "hash": "0x4982cfc3462d21780ccff64504fc5139916ece9af0996a47b22b7b167431315b",
      "transactionType": "CALL",
      "contractName": null,
      "contractAddress": "0x000000000022d473030f116ddee9f6b43ac78ba3",
      "function": "approve(address,address,uint160,uint48)",
      "arguments": [
        "0x4B0c697aeF1FfD55B912091e7fC2ba3771AB11Ef",
        "0x4B2C77d209D3405F41a037Ec6c77F7F5b8e2ca80",
        "1461501637330902918203684832716283019655932542975",
        "281474976710655"
      ],
      "transaction": {
        "from": "0x02847d22c33f5f060bd27e69f1a413ad44cab213",
        "to": "0x000000000022d473030f116ddee9f6b43ac78ba3",
        "gas": "0x1112d",
        "value": "0x0",
        "input": "0x87517c450000000000000000000000004b0c697aef1ffd55b912091e7fc2ba3771ab11ef0000000000000000000000004b2c77d209d3405f41a037ec6c77f7f5b8e2ca80000000000000000000000000ffffffffffffffffffffffffffffffffffffffff0000000000000000000000000000000000000000000000000000ffffffffffff",
        "nonce": "0xb6f",
        "chainId": "0x14a34"
      },
      "additionalContracts": [],
      "isFixedGasLimit": false
    },
    {
      "hash": "0xba66640e7f776295c9b9e46da06d63b992c4aad116ba2aa7c4766816424dfc4b",
      "transactionType": "CALL",
      "contractName": "MockERC20",
      "contractAddress": "0x68e4f80d47b030f840f468ddfbd927c5a1746768",
      "function": "approve(address,uint256)",
      "arguments": [
        "0x000000000022D473030F116dDEE9F6B43aC78BA3",
        "115792089237316195423570985008687907853269984665640564039457584007913129639935"
      ],
      "transaction": {
        "from": "0x02847d22c33f5f060bd27e69f1a413ad44cab213",
        "to": "0x68e4f80d47b030f840f468ddfbd927c5a1746768",
        "gas": "0x10c6b",
        "value": "0x0",
        "input": "0x095ea7b3000000000000000000000000000000000022d473030f116ddee9f6b43ac78ba3ffffffffffffffffffffffffffffffffffffffffffffffffffffffffffffffff",
        "nonce": "0xb70",
        "chainId": "0x14a34"
      },
      "additionalContracts": [],
      "isFixedGasLimit": false
    },
    {
      "hash": "0x3e238b259f0a0ad844b493953557a9b50b5f3c4c9aebf806ebd16420adf82b1f",
      "transactionType": "CALL",
      "contractName": null,
      "contractAddress": "0x000000000022d473030f116ddee9f6b43ac78ba3",
      "function": "approve(address,address,uint160,uint48)",
      "arguments": [
        "0x68e4F80d47B030F840f468dDfbd927c5a1746768",
        "0x4B2C77d209D3405F41a037Ec6c77F7F5b8e2ca80",
        "1461501637330902918203684832716283019655932542975",
        "281474976710655"
      ],
      "transaction": {
        "from": "0x02847d22c33f5f060bd27e69f1a413ad44cab213",
        "to": "0x000000000022d473030f116ddee9f6b43ac78ba3",
        "gas": "0x1112d",
        "value": "0x0",
        "input": "0x87517c4500000000000000000000000068e4f80d47b030f840f468ddfbd927c5a17467680000000000000000000000004b2c77d209d3405f41a037ec6c77f7f5b8e2ca80000000000000000000000000ffffffffffffffffffffffffffffffffffffffff0000000000000000000000000000000000000000000000000000ffffffffffff",
        "nonce": "0xb71",
        "chainId": "0x14a34"
      },
      "additionalContracts": [],
      "isFixedGasLimit": false
    },
    {
      "hash": "0x499f11241f0e8951f0ceb1a9395903c8a753c054213fe0e7720604c87262974c",
      "transactionType": "CALL",
      "contractName": "MockERC20",
      "contractAddress": "0xbd9d171319c8a4ba7346cbced9367334004f0e04",
      "function": "approve(address,uint256)",
      "arguments": [
        "0x000000000022D473030F116dDEE9F6B43aC78BA3",
        "115792089237316195423570985008687907853269984665640564039457584007913129639935"
      ],
      "transaction": {
        "from": "0x02847d22c33f5f060bd27e69f1a413ad44cab213",
        "to": "0xbd9d171319c8a4ba7346cbced9367334004f0e04",
        "gas": "0x10c6b",
        "value": "0x0",
        "input": "0x095ea7b3000000000000000000000000000000000022d473030f116ddee9f6b43ac78ba3ffffffffffffffffffffffffffffffffffffffffffffffffffffffffffffffff",
        "nonce": "0xb72",
        "chainId": "0x14a34"
      },
      "additionalContracts": [],
      "isFixedGasLimit": false
    },
    {
      "hash": "0xe7c5e0d72b7949d384f12effbd0d9ff0e25f9b429b3a92dbeedd270b9f8a115d",
      "transactionType": "CALL",
      "contractName": null,
      "contractAddress": "0x000000000022d473030f116ddee9f6b43ac78ba3",
      "function": "approve(address,address,uint160,uint48)",
      "arguments": [
        "0xbD9D171319c8a4bA7346cBceD9367334004f0E04",
        "0x4B2C77d209D3405F41a037Ec6c77F7F5b8e2ca80",
        "1461501637330902918203684832716283019655932542975",
        "281474976710655"
      ],
      "transaction": {
        "from": "0x02847d22c33f5f060bd27e69f1a413ad44cab213",
        "to": "0x000000000022d473030f116ddee9f6b43ac78ba3",
        "gas": "0x101ee",
        "value": "0x0",
        "input": "0x87517c45000000000000000000000000bd9d171319c8a4ba7346cbced9367334004f0e040000000000000000000000004b2c77d209d3405f41a037ec6c77f7f5b8e2ca80000000000000000000000000ffffffffffffffffffffffffffffffffffffffff0000000000000000000000000000000000000000000000000000ffffffffffff",
        "nonce": "0xb73",
        "chainId": "0x14a34"
      },
      "additionalContracts": [],
      "isFixedGasLimit": false
    },
    {
      "hash": "0x909cf0d0a1a745a0b170ce0c27fe86a50aeff390dec28702c90d8c576c0401cf",
      "transactionType": "CALL",
      "contractName": "MockERC20",
      "contractAddress": "0x250cd0e024137b19c52e401379d53ddae16c378f",
      "function": "approve(address,uint256)",
      "arguments": [
        "0x000000000022D473030F116dDEE9F6B43aC78BA3",
        "115792089237316195423570985008687907853269984665640564039457584007913129639935"
      ],
      "transaction": {
        "from": "0x02847d22c33f5f060bd27e69f1a413ad44cab213",
        "to": "0x250cd0e024137b19c52e401379d53ddae16c378f",
        "gas": "0x10c6b",
        "value": "0x0",
        "input": "0x095ea7b3000000000000000000000000000000000022d473030f116ddee9f6b43ac78ba3ffffffffffffffffffffffffffffffffffffffffffffffffffffffffffffffff",
        "nonce": "0xb74",
        "chainId": "0x14a34"
      },
      "additionalContracts": [],
      "isFixedGasLimit": false
    },
    {
      "hash": "0x7412d973a6b324796adad4679e73f49c9a406d53a95cd609123db740a7190632",
      "transactionType": "CALL",
      "contractName": null,
      "contractAddress": "0x000000000022d473030f116ddee9f6b43ac78ba3",
      "function": "approve(address,address,uint160,uint48)",
      "arguments": [
        "0x250CD0e024137b19c52e401379D53ddAE16c378F",
        "0x4B2C77d209D3405F41a037Ec6c77F7F5b8e2ca80",
        "1461501637330902918203684832716283019655932542975",
        "281474976710655"
      ],
      "transaction": {
        "from": "0x02847d22c33f5f060bd27e69f1a413ad44cab213",
        "to": "0x000000000022d473030f116ddee9f6b43ac78ba3",
        "gas": "0x1112d",
        "value": "0x0",
        "input": "0x87517c45000000000000000000000000250cd0e024137b19c52e401379d53ddae16c378f0000000000000000000000004b2c77d209d3405f41a037ec6c77f7f5b8e2ca80000000000000000000000000ffffffffffffffffffffffffffffffffffffffff0000000000000000000000000000000000000000000000000000ffffffffffff",
        "nonce": "0xb75",
        "chainId": "0x14a34"
      },
      "additionalContracts": [],
      "isFixedGasLimit": false
    },
    {
      "hash": "0xcda3b387c00e2734313d3f266ae14e1f915b3bb2cdd18010107d481546af06be",
      "transactionType": "CALL",
      "contractName": null,
      "contractAddress": "0x4b2c77d209d3405f41a037ec6c77f7f5b8e2ca80",
      "function": "multicall(bytes[])",
      "arguments": [
        "[0xf702040500000000000000000000000068e4f80d47b030f840f468ddfbd927c5a1746768000000000000000000000000a23c4ff095a7c6687747797a380e52e71d891d7d0000000000000000000000000000000000000000000000000000000000000bb8000000000000000000000000000000000000000000000000000000000000003c0000000000000000000000000000000000000000000000000000000000000000000000000000000000000000000000000000002dde8fac19458c00000000000000000000000000000000000000000000000000000000000000000000000000e00000000000000000000000000000000000000000000000000000000000000000, 0xdd46508f00000000000000000000000000000000000000000000000000000000000000400000000000000000000000000000000000000000000000000000000069887f940000000000000000000000000000000000000000000000000000000000000400000000000000000000000000000000000000000000000000000000000000004000000000000000000000000000000000000000000000000000000000000000800000000000000000000000000000000000000000000000000000000000000004020d14140000000000000000000000000000000000000000000000000000000000000000000000000000000000000000000000000000000000000000000000040000000000000000000000000000000000000000000000000000000000000080000000000000000000000000000000000000000000000000000000000000024000000000000000000000000000000000000000000000000000000000000002a0000000000000000000000000000000000000000000000000000000000000030000000000000000000000000000000000000000000000000000000000000001a000000000000000000000000068e4f80d47b030f840f468ddfbd927c5a1746768000000000000000000000000a23c4ff095a7c6687747797a380e52e71d891d7d0000000000000000000000000000000000000000000000000000000000000bb8000000000000000000000000000000000000000000000000000000000000003c00000000000000000000000000000000000000000000000000000000000000000000000000000000000000000000000000000000000000000000000000007b0c000000000000000000000000000000000000000000000000000000000001da9c000000000000000000000000000000000000000000000000000000001e8eeb4a0000000000000000000000000000000000000000000000008ac7230489e8000100000000000000000000000000000000000000000000000000000004e614ec0100000000000000000000000002847d22c33f5f060bd27e69f1a413ad44cab21300000000000000000000000000000000000000000000000000000000000001800000000000000000000000000000000000000000000000000000000000000000000000000000000000000000000000000000000000000000000000000000004000000000000000000000000068e4f80d47b030f840f468ddfbd927c5a1746768000000000000000000000000a23c4ff095a7c6687747797a380e52e71d891d7d000000000000000000000000000000000000000000000000000000000000004000000000000000000000000068e4f80d47b030f840f468ddfbd927c5a174676800000000000000000000000002847d22c33f5f060bd27e69f1a413ad44cab2130000000000000000000000000000000000000000000000000000000000000040000000000000000000000000a23c4ff095a7c6687747797a380e52e71d891d7d00000000000000000000000002847d22c33f5f060bd27e69f1a413ad44cab213]"
      ],
      "transaction": {
        "from": "0x02847d22c33f5f060bd27e69f1a413ad44cab213",
        "to": "0x4b2c77d209d3405f41a037ec6c77f7f5b8e2ca80",
        "gas": "0xa119e",
        "value": "0x0",
        "input": "0xac9650d800000000000000000000000000000000000000000000000000000000000000200000000000000000000000000000000000000000000000000000000000000002000000000000000000000000000000000000000000000000000000000000004000000000000000000000000000000000000000000000000000000000000001800000000000000000000000000000000000000000000000000000000000000104f702040500000000000000000000000068e4f80d47b030f840f468ddfbd927c5a1746768000000000000000000000000a23c4ff095a7c6687747797a380e52e71d891d7d0000000000000000000000000000000000000000000000000000000000000bb8000000000000000000000000000000000000000000000000000000000000003c0000000000000000000000000000000000000000000000000000000000000000000000000000000000000000000000000000002dde8fac19458c00000000000000000000000000000000000000000000000000000000000000000000000000e00000000000000000000000000000000000000000000000000000000000000000000000000000000000000000000000000000000000000000000000000000000000000000000000000000000000000000000000000000000000000464dd46508f00000000000000000000000000000000000000000000000000000000000000400000000000000000000000000000000000000000000000000000000069887f940000000000000000000000000000000000000000000000000000000000000400000000000000000000000000000000000000000000000000000000000000004000000000000000000000000000000000000000000000000000000000000000800000000000000000000000000000000000000000000000000000000000000004020d14140000000000000000000000000000000000000000000000000000000000000000000000000000000000000000000000000000000000000000000000040000000000000000000000000000000000000000000000000000000000000080000000000000000000000000000000000000000000000000000000000000024000000000000000000000000000000000000000000000000000000000000002a0000000000000000000000000000000000000000000000000000000000000030000000000000000000000000000000000000000000000000000000000000001a000000000000000000000000068e4f80d47b030f840f468ddfbd927c5a1746768000000000000000000000000a23c4ff095a7c6687747797a380e52e71d891d7d0000000000000000000000000000000000000000000000000000000000000bb8000000000000000000000000000000000000000000000000000000000000003c00000000000000000000000000000000000000000000000000000000000000000000000000000000000000000000000000000000000000000000000000007b0c000000000000000000000000000000000000000000000000000000000001da9c000000000000000000000000000000000000000000000000000000001e8eeb4a0000000000000000000000000000000000000000000000008ac7230489e8000100000000000000000000000000000000000000000000000000000004e614ec0100000000000000000000000002847d22c33f5f060bd27e69f1a413ad44cab21300000000000000000000000000000000000000000000000000000000000001800000000000000000000000000000000000000000000000000000000000000000000000000000000000000000000000000000000000000000000000000000004000000000000000000000000068e4f80d47b030f840f468ddfbd927c5a1746768000000000000000000000000a23c4ff095a7c6687747797a380e52e71d891d7d000000000000000000000000000000000000000000000000000000000000004000000000000000000000000068e4f80d47b030f840f468ddfbd927c5a174676800000000000000000000000002847d22c33f5f060bd27e69f1a413ad44cab2130000000000000000000000000000000000000000000000000000000000000040000000000000000000000000a23c4ff095a7c6687747797a380e52e71d891d7d00000000000000000000000002847d22c33f5f060bd27e69f1a413ad44cab21300000000000000000000000000000000000000000000000000000000",
        "nonce": "0xb76",
        "chainId": "0x14a34"
      },
      "additionalContracts": [],
      "isFixedGasLimit": false
    },
    {
      "hash": "0xa23a54f33f9995c96d36f2452df9c8eb542a1559782a1a29adbe4e287c1c8473",
      "transactionType": "CALL",
      "contractName": null,
      "contractAddress": "0x4b2c77d209d3405f41a037ec6c77f7f5b8e2ca80",
      "function": "multicall(bytes[])",
      "arguments": [
        "[0xf7020405000000000000000000000000a23c4ff095a7c6687747797a380e52e71d891d7d000000000000000000000000bd9d171319c8a4ba7346cbced9367334004f0e040000000000000000000000000000000000000000000000000000000000000bb8000000000000000000000000000000000000000000000000000000000000003c0000000000000000000000000000000000000000000000000000000000000000000000000000000000000000000000000000000000f74bfeceac00000000000000000000000000000000000000000000000000000000000000000000000000e00000000000000000000000000000000000000000000000000000000000000000, 0xdd46508f00000000000000000000000000000000000000000000000000000000000000400000000000000000000000000000000000000000000000000000000069887f940000000000000000000000000000000000000000000000000000000000000400000000000000000000000000000000000000000000000000000000000000004000000000000000000000000000000000000000000000000000000000000000800000000000000000000000000000000000000000000000000000000000000004020d14140000000000000000000000000000000000000000000000000000000000000000000000000000000000000000000000000000000000000000000000040000000000000000000000000000000000000000000000000000000000000080000000000000000000000000000000000000000000000000000000000000024000000000000000000000000000000000000000000000000000000000000002a0000000000000000000000000000000000000000000000000000000000000030000000000000000000000000000000000000000000000000000000000000001a0000000000000000000000000a23c4ff095a7c6687747797a380e52e71d891d7d000000000000000000000000bd9d171319c8a4ba7346cbced9367334004f0e040000000000000000000000000000000000000000000000000000000000000bb8000000000000000000000000000000000000000000000000000000000000003c0000000000000000000000000000000000000000000000000000000000000000fffffffffffffffffffffffffffffffffffffffffffffffffffffffffffd9c48fffffffffffffffffffffffffffffffffffffffffffffffffffffffffffefbd800000000000000000000000000000000000000000000000000000000b091c9cf000000000000000000000000000000000000000000000000000000a384578f01000000000000000000000000000000000000000000000000000000003b9aca0100000000000000000000000002847d22c33f5f060bd27e69f1a413ad44cab213000000000000000000000000000000000000000000000000000000000000018000000000000000000000000000000000000000000000000000000000000000000000000000000000000000000000000000000000000000000000000000000040000000000000000000000000a23c4ff095a7c6687747797a380e52e71d891d7d000000000000000000000000bd9d171319c8a4ba7346cbced9367334004f0e040000000000000000000000000000000000000000000000000000000000000040000000000000000000000000a23c4ff095a7c6687747797a380e52e71d891d7d00000000000000000000000002847d22c33f5f060bd27e69f1a413ad44cab2130000000000000000000000000000000000000000000000000000000000000040000000000000000000000000bd9d171319c8a4ba7346cbced9367334004f0e0400000000000000000000000002847d22c33f5f060bd27e69f1a413ad44cab213]"
      ],
      "transaction": {
        "from": "0x02847d22c33f5f060bd27e69f1a413ad44cab213",
        "to": "0x4b2c77d209d3405f41a037ec6c77f7f5b8e2ca80",
        "gas": "0x9b795",
        "value": "0x0",
        "input": "0xac9650d800000000000000000000000000000000000000000000000000000000000000200000000000000000000000000000000000000000000000000000000000000002000000000000000000000000000000000000000000000000000000000000004000000000000000000000000000000000000000000000000000000000000001800000000000000000000000000000000000000000000000000000000000000104f7020405000000000000000000000000a23c4ff095a7c6687747797a380e52e71d891d7d000000000000000000000000bd9d171319c8a4ba7346cbced9367334004f0e040000000000000000000000000000000000000000000000000000000000000bb8000000000000000000000000000000000000000000000000000000000000003c0000000000000000000000000000000000000000000000000000000000000000000000000000000000000000000000000000000000f74bfeceac00000000000000000000000000000000000000000000000000000000000000000000000000e00000000000000000000000000000000000000000000000000000000000000000000000000000000000000000000000000000000000000000000000000000000000000000000000000000000000000000000000000000000000000464dd46508f00000000000000000000000000000000000000000000000000000000000000400000000000000000000000000000000000000000000000000000000069887f940000000000000000000000000000000000000000000000000000000000000400000000000000000000000000000000000000000000000000000000000000004000000000000000000000000000000000000000000000000000000000000000800000000000000000000000000000000000000000000000000000000000000004020d14140000000000000000000000000000000000000000000000000000000000000000000000000000000000000000000000000000000000000000000000040000000000000000000000000000000000000000000000000000000000000080000000000000000000000000000000000000000000000000000000000000024000000000000000000000000000000000000000000000000000000000000002a0000000000000000000000000000000000000000000000000000000000000030000000000000000000000000000000000000000000000000000000000000001a0000000000000000000000000a23c4ff095a7c6687747797a380e52e71d891d7d000000000000000000000000bd9d171319c8a4ba7346cbced9367334004f0e040000000000000000000000000000000000000000000000000000000000000bb8000000000000000000000000000000000000000000000000000000000000003c0000000000000000000000000000000000000000000000000000000000000000fffffffffffffffffffffffffffffffffffffffffffffffffffffffffffd9c48fffffffffffffffffffffffffffffffffffffffffffffffffffffffffffefbd800000000000000000000000000000000000000000000000000000000b091c9cf000000000000000000000000000000000000000000000000000000a384578f01000000000000000000000000000000000000000000000000000000003b9aca0100000000000000000000000002847d22c33f5f060bd27e69f1a413ad44cab213000000000000000000000000000000000000000000000000000000000000018000000000000000000000000000000000000000000000000000000000000000000000000000000000000000000000000000000000000000000000000000000040000000000000000000000000a23c4ff095a7c6687747797a380e52e71d891d7d000000000000000000000000bd9d171319c8a4ba7346cbced9367334004f0e040000000000000000000000000000000000000000000000000000000000000040000000000000000000000000a23c4ff095a7c6687747797a380e52e71d891d7d00000000000000000000000002847d22c33f5f060bd27e69f1a413ad44cab2130000000000000000000000000000000000000000000000000000000000000040000000000000000000000000bd9d171319c8a4ba7346cbced9367334004f0e0400000000000000000000000002847d22c33f5f060bd27e69f1a413ad44cab21300000000000000000000000000000000000000000000000000000000",
        "nonce": "0xb77",
        "chainId": "0x14a34"
      },
      "additionalContracts": [],
      "isFixedGasLimit": false
    },
    {
      "hash": "0x3fed7a2aff1a26cd8e710be406c925b75263cb00c45b79ac6ab521f7b9eeb2bc",
      "transactionType": "CALL",
      "contractName": null,
      "contractAddress": "0x4b2c77d209d3405f41a037ec6c77f7f5b8e2ca80",
      "function": "multicall(bytes[])",
      "arguments": [
        "[0xf702040500000000000000000000000068e4f80d47b030f840f468ddfbd927c5a1746768000000000000000000000000bd9d171319c8a4ba7346cbced9367334004f0e040000000000000000000000000000000000000000000000000000000000000bb8000000000000000000000000000000000000000000000000000000000000003c000000000000000000000000000000000000000000000000000000000000000000000000000000000000000000000000000000002c905a6f4b4700000000000000000000000000000000000000000000000000000000000000000000000000e00000000000000000000000000000000000000000000000000000000000000000, 0xdd46508f00000000000000000000000000000000000000000000000000000000000000400000000000000000000000000000000000000000000000000000000069887f940000000000000000000000000000000000000000000000000000000000000400000000000000000000000000000000000000000000000000000000000000004000000000000000000000000000000000000000000000000000000000000000800000000000000000000000000000000000000000000000000000000000000004020d14140000000000000000000000000000000000000000000000000000000000000000000000000000000000000000000000000000000000000000000000040000000000000000000000000000000000000000000000000000000000000080000000000000000000000000000000000000000000000000000000000000024000000000000000000000000000000000000000000000000000000000000002a0000000000000000000000000000000000000000000000000000000000000030000000000000000000000000000000000000000000000000000000000000001a000000000000000000000000068e4f80d47b030f840f468ddfbd927c5a1746768000000000000000000000000bd9d171319c8a4ba7346cbced9367334004f0e040000000000000000000000000000000000000000000000000000000000000bb8000000000000000000000000000000000000000000000000000000000000003c0000000000000000000000000000000000000000000000000000000000000000fffffffffffffffffffffffffffffffffffffffffffffffffffffffffffec7d00000000000000000000000000000000000000000000000000000000000002724000000000000000000000000000000000000000000000000000000017edab2c8000000000000000000000000000000000000000000000011e3ab8395c6e80001000000000000000000000000000000000000000000000000000000003b9aca0100000000000000000000000002847d22c33f5f060bd27e69f1a413ad44cab21300000000000000000000000000000000000000000000000000000000000001800000000000000000000000000000000000000000000000000000000000000000000000000000000000000000000000000000000000000000000000000000004000000000000000000000000068e4f80d47b030f840f468ddfbd927c5a1746768000000000000000000000000bd9d171319c8a4ba7346cbced9367334004f0e04000000000000000000000000000000000000000000000000000000000000004000000000000000000000000068e4f80d47b030f840f468ddfbd927c5a174676800000000000000000000000002847d22c33f5f060bd27e69f1a413ad44cab2130000000000000000000000000000000000000000000000000000000000000040000000000000000000000000bd9d171319c8a4ba7346cbced9367334004f0e0400000000000000000000000002847d22c33f5f060bd27e69f1a413ad44cab213]"
      ],
      "transaction": {
        "from": "0x02847d22c33f5f060bd27e69f1a413ad44cab213",
        "to": "0x4b2c77d209d3405f41a037ec6c77f7f5b8e2ca80",
        "gas": "0x8cebf",
        "value": "0x0",
        "input": "0xac9650d800000000000000000000000000000000000000000000000000000000000000200000000000000000000000000000000000000000000000000000000000000002000000000000000000000000000000000000000000000000000000000000004000000000000000000000000000000000000000000000000000000000000001800000000000000000000000000000000000000000000000000000000000000104f702040500000000000000000000000068e4f80d47b030f840f468ddfbd927c5a1746768000000000000000000000000bd9d171319c8a4ba7346cbced9367334004f0e040000000000000000000000000000000000000000000000000000000000000bb8000000000000000000000000000000000000000000000000000000000000003c000000000000000000000000000000000000000000000000000000000000000000000000000000000000000000000000000000002c905a6f4b4700000000000000000000000000000000000000000000000000000000000000000000000000e00000000000000000000000000000000000000000000000000000000000000000000000000000000000000000000000000000000000000000000000000000000000000000000000000000000000000000000000000000000000000464dd46508f00000000000000000000000000000000000000000000000000000000000000400000000000000000000000000000000000000000000000000000000069887f940000000000000000000000000000000000000000000000000000000000000400000000000000000000000000000000000000000000000000000000000000004000000000000000000000000000000000000000000000000000000000000000800000000000000000000000000000000000000000000000000000000000000004020d14140000000000000000000000000000000000000000000000000000000000000000000000000000000000000000000000000000000000000000000000040000000000000000000000000000000000000000000000000000000000000080000000000000000000000000000000000000000000000000000000000000024000000000000000000000000000000000000000000000000000000000000002a0000000000000000000000000000000000000000000000000000000000000030000000000000000000000000000000000000000000000000000000000000001a000000000000000000000000068e4f80d47b030f840f468ddfbd927c5a1746768000000000000000000000000bd9d171319c8a4ba7346cbced9367334004f0e040000000000000000000000000000000000000000000000000000000000000bb8000000000000000000000000000000000000000000000000000000000000003c0000000000000000000000000000000000000000000000000000000000000000fffffffffffffffffffffffffffffffffffffffffffffffffffffffffffec7d00000000000000000000000000000000000000000000000000000000000002724000000000000000000000000000000000000000000000000000000017edab2c8000000000000000000000000000000000000000000000011e3ab8395c6e80001000000000000000000000000000000000000000000000000000000003b9aca0100000000000000000000000002847d22c33f5f060bd27e69f1a413ad44cab21300000000000000000000000000000000000000000000000000000000000001800000000000000000000000000000000000000000000000000000000000000000000000000000000000000000000000000000000000000000000000000000004000000000000000000000000068e4f80d47b030f840f468ddfbd927c5a1746768000000000000000000000000bd9d171319c8a4ba7346cbced9367334004f0e04000000000000000000000000000000000000000000000000000000000000004000000000000000000000000068e4f80d47b030f840f468ddfbd927c5a174676800000000000000000000000002847d22c33f5f060bd27e69f1a413ad44cab2130000000000000000000000000000000000000000000000000000000000000040000000000000000000000000bd9d171319c8a4ba7346cbced9367334004f0e0400000000000000000000000002847d22c33f5f060bd27e69f1a413ad44cab21300000000000000000000000000000000000000000000000000000000",
        "nonce": "0xb78",
        "chainId": "0x14a34"
      },
      "additionalContracts": [],
      "isFixedGasLimit": false
    },
    {
      "hash": "0x98f63efc51b7aa3653480b38d7d07db36dd4a91c51b5b74b3b6e660a71d0df00",
      "transactionType": "CALL",
      "contractName": null,
      "contractAddress": "0x4b2c77d209d3405f41a037ec6c77f7f5b8e2ca80",
      "function": "multicall(bytes[])",
      "arguments": [
        "[0xf70204050000000000000000000000004b0c697aef1ffd55b912091e7fc2ba3771ab11ef000000000000000000000000a23c4ff095a7c6687747797a380e52e71d891d7d0000000000000000000000000000000000000000000000000000000000000bb8000000000000000000000000000000000000000000000000000000000000003c0000000000000000000000000000000000000000000000000000000000000000000000000000000000000000000000000000000100000000000000000000000000000000000000000000000000000000000000000000000000000000000000e00000000000000000000000000000000000000000000000000000000000000000, 0xdd46508f00000000000000000000000000000000000000000000000000000000000000400000000000000000000000000000000000000000000000000000000069887f940000000000000000000000000000000000000000000000000000000000000400000000000000000000000000000000000000000000000000000000000000004000000000000000000000000000000000000000000000000000000000000000800000000000000000000000000000000000000000000000000000000000000004020d14140000000000000000000000000000000000000000000000000000000000000000000000000000000000000000000000000000000000000000000000040000000000000000000000000000000000000000000000000000000000000080000000000000000000000000000000000000000000000000000000000000024000000000000000000000000000000000000000000000000000000000000002a0000000000000000000000000000000000000000000000000000000000000030000000000000000000000000000000000000000000000000000000000000001a00000000000000000000000004b0c697aef1ffd55b912091e7fc2ba3771ab11ef000000000000000000000000a23c4ff095a7c6687747797a380e52e71d891d7d0000000000000000000000000000000000000000000000000000000000000bb8000000000000000000000000000000000000000000000000000000000000003c0000000000000000000000000000000000000000000000000000000000000000ffffffffffffffffffffffffffffffffffffffffffffffffffffffffffff5038000000000000000000000000000000000000000000000000000000000000afc80000000000000000000000000000000000000000000000000000001a06cc10cc000000000000000000000000000000000000000000000000000000174876e801000000000000000000000000000000000000000000000000000000174876e80100000000000000000000000002847d22c33f5f060bd27e69f1a413ad44cab2130000000000000000000000000000000000000000000000000000000000000180000000000000000000000000000000000000000000000000000000000000000000000000000000000000000000000000000000000000000000000000000000400000000000000000000000004b0c697aef1ffd55b912091e7fc2ba3771ab11ef000000000000000000000000a23c4ff095a7c6687747797a380e52e71d891d7d00000000000000000000000000000000000000000000000000000000000000400000000000000000000000004b0c697aef1ffd55b912091e7fc2ba3771ab11ef00000000000000000000000002847d22c33f5f060bd27e69f1a413ad44cab2130000000000000000000000000000000000000000000000000000000000000040000000000000000000000000a23c4ff095a7c6687747797a380e52e71d891d7d00000000000000000000000002847d22c33f5f060bd27e69f1a413ad44cab213]"
      ],
      "transaction": {
        "from": "0x02847d22c33f5f060bd27e69f1a413ad44cab213",
        "to": "0x4b2c77d209d3405f41a037ec6c77f7f5b8e2ca80",
        "gas": "0x92abb",
        "value": "0x0",
        "input": "0xac9650d800000000000000000000000000000000000000000000000000000000000000200000000000000000000000000000000000000000000000000000000000000002000000000000000000000000000000000000000000000000000000000000004000000000000000000000000000000000000000000000000000000000000001800000000000000000000000000000000000000000000000000000000000000104f70204050000000000000000000000004b0c697aef1ffd55b912091e7fc2ba3771ab11ef000000000000000000000000a23c4ff095a7c6687747797a380e52e71d891d7d0000000000000000000000000000000000000000000000000000000000000bb8000000000000000000000000000000000000000000000000000000000000003c0000000000000000000000000000000000000000000000000000000000000000000000000000000000000000000000000000000100000000000000000000000000000000000000000000000000000000000000000000000000000000000000e00000000000000000000000000000000000000000000000000000000000000000000000000000000000000000000000000000000000000000000000000000000000000000000000000000000000000000000000000000000000000464dd46508f00000000000000000000000000000000000000000000000000000000000000400000000000000000000000000000000000000000000000000000000069887f940000000000000000000000000000000000000000000000000000000000000400000000000000000000000000000000000000000000000000000000000000004000000000000000000000000000000000000000000000000000000000000000800000000000000000000000000000000000000000000000000000000000000004020d14140000000000000000000000000000000000000000000000000000000000000000000000000000000000000000000000000000000000000000000000040000000000000000000000000000000000000000000000000000000000000080000000000000000000000000000000000000000000000000000000000000024000000000000000000000000000000000000000000000000000000000000002a0000000000000000000000000000000000000000000000000000000000000030000000000000000000000000000000000000000000000000000000000000001a00000000000000000000000004b0c697aef1ffd55b912091e7fc2ba3771ab11ef000000000000000000000000a23c4ff095a7c6687747797a380e52e71d891d7d0000000000000000000000000000000000000000000000000000000000000bb8000000000000000000000000000000000000000000000000000000000000003c0000000000000000000000000000000000000000000000000000000000000000ffffffffffffffffffffffffffffffffffffffffffffffffffffffffffff5038000000000000000000000000000000000000000000000000000000000000afc80000000000000000000000000000000000000000000000000000001a06cc10cc000000000000000000000000000000000000000000000000000000174876e801000000000000000000000000000000000000000000000000000000174876e80100000000000000000000000002847d22c33f5f060bd27e69f1a413ad44cab2130000000000000000000000000000000000000000000000000000000000000180000000000000000000000000000000000000000000000000000000000000000000000000000000000000000000000000000000000000000000000000000000400000000000000000000000004b0c697aef1ffd55b912091e7fc2ba3771ab11ef000000000000000000000000a23c4ff095a7c6687747797a380e52e71d891d7d00000000000000000000000000000000000000000000000000000000000000400000000000000000000000004b0c697aef1ffd55b912091e7fc2ba3771ab11ef00000000000000000000000002847d22c33f5f060bd27e69f1a413ad44cab2130000000000000000000000000000000000000000000000000000000000000040000000000000000000000000a23c4ff095a7c6687747797a380e52e71d891d7d00000000000000000000000002847d22c33f5f060bd27e69f1a413ad44cab21300000000000000000000000000000000000000000000000000000000",
        "nonce": "0xb79",
        "chainId": "0x14a34"
      },
      "additionalContracts": [],
      "isFixedGasLimit": false
    },
    {
      "hash": "0x790053bec6af9a9d5b441ebe0b9a5e3dd365472cf12e7023bdd4bcf99c14ca68",
      "transactionType": "CALL",
      "contractName": null,
      "contractAddress": "0x4b2c77d209d3405f41a037ec6c77f7f5b8e2ca80",
      "function": "multicall(bytes[])",
      "arguments": [
        "[0xf7020405000000000000000000000000250cd0e024137b19c52e401379d53ddae16c378f000000000000000000000000a23c4ff095a7c6687747797a380e52e71d891d7d0000000000000000000000000000000000000000000000000000000000000bb8000000000000000000000000000000000000000000000000000000000000003c0000000000000000000000000000000000000000000000000000000000000000000000000000000000000000000000000000000100000000000000000000000000000000000000000000000000000000000000000000000000000000000000e00000000000000000000000000000000000000000000000000000000000000000, 0xdd46508f00000000000000000000000000000000000000000000000000000000000000400000000000000000000000000000000000000000000000000000000069887f940000000000000000000000000000000000000000000000000000000000000400000000000000000000000000000000000000000000000000000000000000004000000000000000000000000000000000000000000000000000000000000000800000000000000000000000000000000000000000000000000000000000000004020d14140000000000000000000000000000000000000000000000000000000000000000000000000000000000000000000000000000000000000000000000040000000000000000000000000000000000000000000000000000000000000080000000000000000000000000000000000000000000000000000000000000024000000000000000000000000000000000000000000000000000000000000002a0000000000000000000000000000000000000000000000000000000000000030000000000000000000000000000000000000000000000000000000000000001a0000000000000000000000000250cd0e024137b19c52e401379d53ddae16c378f000000000000000000000000a23c4ff095a7c6687747797a380e52e71d891d7d0000000000000000000000000000000000000000000000000000000000000bb8000000000000000000000000000000000000000000000000000000000000003c0000000000000000000000000000000000000000000000000000000000000000ffffffffffffffffffffffffffffffffffffffffffffffffffffffffffff5038000000000000000000000000000000000000000000000000000000000000afc80000000000000000000000000000000000000000000000000000001a06cc10cc00000000000000000000000000000000000000000000152d02c7e14af6800001000000000000000000000000000000000000000000000000000000174876e80100000000000000000000000002847d22c33f5f060bd27e69f1a413ad44cab213000000000000000000000000000000000000000000000000000000000000018000000000000000000000000000000000000000000000000000000000000000000000000000000000000000000000000000000000000000000000000000000040000000000000000000000000250cd0e024137b19c52e401379d53ddae16c378f000000000000000000000000a23c4ff095a7c6687747797a380e52e71d891d7d0000000000000000000000000000000000000000000000000000000000000040000000000000000000000000250cd0e024137b19c52e401379d53ddae16c378f00000000000000000000000002847d22c33f5f060bd27e69f1a413ad44cab2130000000000000000000000000000000000000000000000000000000000000040000000000000000000000000a23c4ff095a7c6687747797a380e52e71d891d7d00000000000000000000000002847d22c33f5f060bd27e69f1a413ad44cab213]"
      ],
      "transaction": {
        "from": "0x02847d22c33f5f060bd27e69f1a413ad44cab213",
        "to": "0x4b2c77d209d3405f41a037ec6c77f7f5b8e2ca80",
        "gas": "0x92afe",
        "value": "0x0",
        "input": "0xac9650d800000000000000000000000000000000000000000000000000000000000000200000000000000000000000000000000000000000000000000000000000000002000000000000000000000000000000000000000000000000000000000000004000000000000000000000000000000000000000000000000000000000000001800000000000000000000000000000000000000000000000000000000000000104f7020405000000000000000000000000250cd0e024137b19c52e401379d53ddae16c378f000000000000000000000000a23c4ff095a7c6687747797a380e52e71d891d7d0000000000000000000000000000000000000000000000000000000000000bb8000000000000000000000000000000000000000000000000000000000000003c0000000000000000000000000000000000000000000000000000000000000000000000000000000000000000000000000000000100000000000000000000000000000000000000000000000000000000000000000000000000000000000000e00000000000000000000000000000000000000000000000000000000000000000000000000000000000000000000000000000000000000000000000000000000000000000000000000000000000000000000000000000000000000464dd46508f00000000000000000000000000000000000000000000000000000000000000400000000000000000000000000000000000000000000000000000000069887f940000000000000000000000000000000000000000000000000000000000000400000000000000000000000000000000000000000000000000000000000000004000000000000000000000000000000000000000000000000000000000000000800000000000000000000000000000000000000000000000000000000000000004020d14140000000000000000000000000000000000000000000000000000000000000000000000000000000000000000000000000000000000000000000000040000000000000000000000000000000000000000000000000000000000000080000000000000000000000000000000000000000000000000000000000000024000000000000000000000000000000000000000000000000000000000000002a0000000000000000000000000000000000000000000000000000000000000030000000000000000000000000000000000000000000000000000000000000001a0000000000000000000000000250cd0e024137b19c52e401379d53ddae16c378f000000000000000000000000a23c4ff095a7c6687747797a380e52e71d891d7d0000000000000000000000000000000000000000000000000000000000000bb8000000000000000000000000000000000000000000000000000000000000003c0000000000000000000000000000000000000000000000000000000000000000ffffffffffffffffffffffffffffffffffffffffffffffffffffffffffff5038000000000000000000000000000000000000000000000000000000000000afc80000000000000000000000000000000000000000000000000000001a06cc10cc00000000000000000000000000000000000000000000152d02c7e14af6800001000000000000000000000000000000000000000000000000000000174876e80100000000000000000000000002847d22c33f5f060bd27e69f1a413ad44cab213000000000000000000000000000000000000000000000000000000000000018000000000000000000000000000000000000000000000000000000000000000000000000000000000000000000000000000000000000000000000000000000040000000000000000000000000250cd0e024137b19c52e401379d53ddae16c378f000000000000000000000000a23c4ff095a7c6687747797a380e52e71d891d7d0000000000000000000000000000000000000000000000000000000000000040000000000000000000000000250cd0e024137b19c52e401379d53ddae16c378f00000000000000000000000002847d22c33f5f060bd27e69f1a413ad44cab2130000000000000000000000000000000000000000000000000000000000000040000000000000000000000000a23c4ff095a7c6687747797a380e52e71d891d7d00000000000000000000000002847d22c33f5f060bd27e69f1a413ad44cab21300000000000000000000000000000000000000000000000000000000",
        "nonce": "0xb7a",
        "chainId": "0x14a34"
      },
      "additionalContracts": [],
      "isFixedGasLimit": false
    }
  ],
  "receipts": [
    {
      "status": "0x1",
      "cumulativeGasUsed": "0x439e3d",
      "logs": [],
      "logsBloom": "0x00000000000000000000000000000000000000000000000000000000000000000000000000000000000000000000000000000000000000000000000000000000000000000000000000000000000000000000000000000000000000000000000000000000000000000000000000000000000000000000000000000000000000000000000000000000000000000000000000000000000000000000000000000000000000000000000000000000000000000000000000000000000000000000000000000000000000000000000000000000000000000000000000000000000000000000000000000000000000000000000000000000000000000000000000000000",
      "type": "0x2",
      "transactionHash": "0x3080e1e6b4399327ba457ac2885ed888584be04338f851119343eac61c5c9255",
      "transactionIndex": "0xb",
      "blockHash": "0x0000000000000000000000000000000000000000000000000000000000000000",
      "blockNumber": "0x23a8957",
      "gasUsed": "0x14b7d7",
      "effectiveGasPrice": "0x124f80",
      "blobGasUsed": "0x114468",
      "from": "0x02847d22c33f5f060bd27e69f1a413ad44cab213",
      "to": null,
      "contractAddress": "0xa23c4ff095a7c6687747797a380e52e71d891d7d",
      "daFootprintGasScalar": "0x138",
      "l1BaseFeeScalar": "0x44d",
      "l1BlobBaseFee": "0x36f8450",
      "l1BlobBaseFeeScalar": "0xa118b",
      "l1Fee": "0x2ec9dc9fca",
      "l1GasPrice": "0x3ac52bf9",
      "l1GasUsed": "0xe2b2"
    },
    {
      "status": "0x1",
      "cumulativeGasUsed": "0x585614",
      "logs": [],
      "logsBloom": "0x00000000000000000000000000000000000000000000000000000000000000000000000000000000000000000000000000000000000000000000000000000000000000000000000000000000000000000000000000000000000000000000000000000000000000000000000000000000000000000000000000000000000000000000000000000000000000000000000000000000000000000000000000000000000000000000000000000000000000000000000000000000000000000000000000000000000000000000000000000000000000000000000000000000000000000000000000000000000000000000000000000000000000000000000000000000",
      "type": "0x2",
      "transactionHash": "0x94ed42f62181e5bd4fa200944cf48f2351dc3fcc6fdb69b461a62ea9b03be1ce",
      "transactionIndex": "0xc",
      "blockHash": "0x0000000000000000000000000000000000000000000000000000000000000000",
      "blockNumber": "0x23a8957",
      "gasUsed": "0x14b7d7",
      "effectiveGasPrice": "0x124f80",
      "blobGasUsed": "0x114468",
      "from": "0x02847d22c33f5f060bd27e69f1a413ad44cab213",
      "to": null,
      "contractAddress": "0x4b0c697aef1ffd55b912091e7fc2ba3771ab11ef",
      "daFootprintGasScalar": "0x138",
      "l1BaseFeeScalar": "0x44d",
      "l1BlobBaseFee": "0x36f8450",
      "l1BlobBaseFeeScalar": "0xa118b",
      "l1Fee": "0x2ec9dc9fca",
      "l1GasPrice": "0x3ac52bf9",
      "l1GasUsed": "0xe2b2"
    },
    {
      "status": "0x1",
      "cumulativeGasUsed": "0x6d0deb",
      "logs": [],
      "logsBloom": "0x00000000000000000000000000000000000000000000000000000000000000000000000000000000000000000000000000000000000000000000000000000000000000000000000000000000000000000000000000000000000000000000000000000000000000000000000000000000000000000000000000000000000000000000000000000000000000000000000000000000000000000000000000000000000000000000000000000000000000000000000000000000000000000000000000000000000000000000000000000000000000000000000000000000000000000000000000000000000000000000000000000000000000000000000000000000",
      "type": "0x2",
      "transactionHash": "0xc89c3322152779d61613682746cfa2d5b7bbee3e4bddc8f657793496dd2fe99c",
      "transactionIndex": "0xd",
      "blockHash": "0x0000000000000000000000000000000000000000000000000000000000000000",
      "blockNumber": "0x23a8957",
      "gasUsed": "0x14b7d7",
      "effectiveGasPrice": "0x124f80",
      "blobGasUsed": "0x114468",
      "from": "0x02847d22c33f5f060bd27e69f1a413ad44cab213",
      "to": null,
      "contractAddress": "0x68e4f80d47b030f840f468ddfbd927c5a1746768",
      "daFootprintGasScalar": "0x138",
      "l1BaseFeeScalar": "0x44d",
      "l1BlobBaseFee": "0x36f8450",
      "l1BlobBaseFeeScalar": "0xa118b",
      "l1Fee": "0x2ec9dc9fca",
      "l1GasPrice": "0x3ac52bf9",
      "l1GasUsed": "0xe2b2"
    },
    {
      "status": "0x1",
      "cumulativeGasUsed": "0x81c5c2",
      "logs": [],
      "logsBloom": "0x00000000000000000000000000000000000000000000000000000000000000000000000000000000000000000000000000000000000000000000000000000000000000000000000000000000000000000000000000000000000000000000000000000000000000000000000000000000000000000000000000000000000000000000000000000000000000000000000000000000000000000000000000000000000000000000000000000000000000000000000000000000000000000000000000000000000000000000000000000000000000000000000000000000000000000000000000000000000000000000000000000000000000000000000000000000",
      "type": "0x2",
      "transactionHash": "0xe5fd0df013d07a35554e8d8771e00415b2b3f8fc3030ae0d3093a783254f2d8e",
      "transactionIndex": "0xe",
      "blockHash": "0x0000000000000000000000000000000000000000000000000000000000000000",
      "blockNumber": "0x23a8957",
      "gasUsed": "0x14b7d7",
      "effectiveGasPrice": "0x124f80",
      "blobGasUsed": "0x114468",
      "from": "0x02847d22c33f5f060bd27e69f1a413ad44cab213",
      "to": null,
      "contractAddress": "0xbd9d171319c8a4ba7346cbced9367334004f0e04",
      "daFootprintGasScalar": "0x138",
      "l1BaseFeeScalar": "0x44d",
      "l1BlobBaseFee": "0x36f8450",
      "l1BlobBaseFeeScalar": "0xa118b",
      "l1Fee": "0x2ec9dc9fca",
      "l1GasPrice": "0x3ac52bf9",
      "l1GasUsed": "0xe2b2"
    },
    {
      "status": "0x1",
      "cumulativeGasUsed": "0x989761",
      "logs": [
        {
          "address": "0x4b0c697aef1ffd55b912091e7fc2ba3771ab11ef",
          "topics": [
            "0xddf252ad1be2c89b69c2b068fc378daa952ba7f163c4a11628f55a4df523b3ef",
            "0x0000000000000000000000000000000000000000000000000000000000000000",
            "0x00000000000000000000000002847d22c33f5f060bd27e69f1a413ad44cab213"
          ],
          "data": "0x000000000000000000000000000000000000000000000000000009184e72a000",
          "blockHash": "0x0000000000000000000000000000000000000000000000000000000000000000",
          "blockNumber": "0x23a8957",
          "blockTimestamp": "0x6988718e",
          "transactionHash": "0x42d9c5c7aed7a4d2a9eb99cfef8f59943a446bc46005274af4e06a3d0783bdeb",
          "transactionIndex": "0x11",
          "logIndex": "0x88",
          "removed": false
        }
      ],
      "logsBloom": "0x00000000000000000000000000000000000000000000000000000000000000000000000000000000000000000000000000000000000000000000000000000000000000000002000000000008000000000000000000000000000000000000000000000000020000000000000000200800000000400000000000000010000000000000000000000000000000000000000000000800000000000000000000000000000000000000000000000000000000000000000000000000000000000000000000000002000000000000000000000000000000000000000000000000000020000000000000000004000000000000000000000000000000000000000000002000",
      "type": "0x2",
      "transactionHash": "0x42d9c5c7aed7a4d2a9eb99cfef8f59943a446bc46005274af4e06a3d0783bdeb",
      "transactionIndex": "0x11",
      "blockHash": "0x0000000000000000000000000000000000000000000000000000000000000000",
      "blockNumber": "0x23a8957",
      "gasUsed": "0x10cf0",
      "effectiveGasPrice": "0x124f80",
      "blobGasUsed": "0x79e0",
      "from": "0x02847d22c33f5f060bd27e69f1a413ad44cab213",
      "to": "0x4b0c697aef1ffd55b912091e7fc2ba3771ab11ef",
      "contractAddress": null,
      "daFootprintGasScalar": "0x138",
      "l1BaseFeeScalar": "0x44d",
      "l1BlobBaseFee": "0x36f8450",
      "l1BlobBaseFeeScalar": "0xa118b",
      "l1Fee": "0x2ec9dc9fca",
      "l1GasPrice": "0x3ac52bf9",
      "l1GasUsed": "0x640"
    },
    {
      "status": "0x1",
      "cumulativeGasUsed": "0xa122cc",
      "logs": [
        {
          "address": "0x68e4f80d47b030f840f468ddfbd927c5a1746768",
          "topics": [
            "0xddf252ad1be2c89b69c2b068fc378daa952ba7f163c4a11628f55a4df523b3ef",
            "0x0000000000000000000000000000000000000000000000000000000000000000",
            "0x00000000000000000000000002847d22c33f5f060bd27e69f1a413ad44cab213"
          ],
          "data": "0x000000000000000000000000000000000000000000084595161401484a000000",
          "blockHash": "0x0000000000000000000000000000000000000000000000000000000000000000",
          "blockNumber": "0x23a8957",
          "blockTimestamp": "0x6988718e",
          "transactionHash": "0x0f43ee9a94aac6c0c6b1fc03e50ba5eb6831df5c4730e15a3cfb18eec144afbd",
          "transactionIndex": "0x15",
          "logIndex": "0x9f",
          "removed": false
        }
      ],
      "logsBloom": "0x00000000000000000000000000000000000000000000000000000000000000000000000000000000000000000000000000000000000000000000000000000000000000000000000000000008000000002000000000000000000000000000000000000000020000000000000000000800000000400000000000000010000000000000000000000000000000000000000000000800000000000000000008000000000000000000000000000000000001000000000000000000000000000000000000000002000000000000000000000000000000000000000000000000000020000000000000000004000000000000000000000000000000000000000000000000",
      "type": "0x2",
      "transactionHash": "0x0f43ee9a94aac6c0c6b1fc03e50ba5eb6831df5c4730e15a3cfb18eec144afbd",
      "transactionIndex": "0x15",
      "blockHash": "0x0000000000000000000000000000000000000000000000000000000000000000",
      "blockNumber": "0x23a8957",
      "gasUsed": "0x10d14",
      "effectiveGasPrice": "0x124f80",
      "blobGasUsed": "0x79e0",
      "from": "0x02847d22c33f5f060bd27e69f1a413ad44cab213",
      "to": "0x68e4f80d47b030f840f468ddfbd927c5a1746768",
      "contractAddress": null,
      "daFootprintGasScalar": "0x138",
      "l1BaseFeeScalar": "0x44d",
      "l1BlobBaseFee": "0x36f8450",
      "l1BlobBaseFeeScalar": "0xa118b",
      "l1Fee": "0x14a3a94e3",
      "l1GasPrice": "0x3ac52bf9",
      "l1GasUsed": "0x640"
    },
    {
      "status": "0x1",
      "cumulativeGasUsed": "0xa22fc8",
      "logs": [
        {
          "address": "0xbd9d171319c8a4ba7346cbced9367334004f0e04",
          "topics": [
            "0xddf252ad1be2c89b69c2b068fc378daa952ba7f163c4a11628f55a4df523b3ef",
            "0x0000000000000000000000000000000000000000000000000000000000000000",
            "0x00000000000000000000000002847d22c33f5f060bd27e69f1a413ad44cab213"
          ],
          "data": "0x00000000000000000000000000000000000000000000000000038d7ea4c68000",
          "blockHash": "0x0000000000000000000000000000000000000000000000000000000000000000",
          "blockNumber": "0x23a8957",
          "blockTimestamp": "0x6988718e",
          "transactionHash": "0x4fd0d8be69860dc01dfd60199a0cb5994074e617e6e91d7a4ae8506475516341",
          "transactionIndex": "0x16",
          "logIndex": "0xa0",
          "removed": false
        }
      ],
      "logsBloom": "0x00000000000000000000000000000000000000000000000000000000000000000000000000000000000000100000000000000000000000000000040000000000000000000000000000000008000000000000000000000000000000000000000000000000020000000000000000000800000000400000000000000010000000000000000000000000000000000000000000000800000000000000000000000000000000000000000000000000000000000000000000000000000000000000400000000002000000000000000000000000000000000000000000000000000020000000000000000004000000000000000000000000000000000000000000000000",
      "type": "0x2",
      "transactionHash": "0x4fd0d8be69860dc01dfd60199a0cb5994074e617e6e91d7a4ae8506475516341",
      "transactionIndex": "0x16",
      "blockHash": "0x0000000000000000000000000000000000000000000000000000000000000000",
      "blockNumber": "0x23a8957",
      "gasUsed": "0x10cfc",
      "effectiveGasPrice": "0x124f80",
      "blobGasUsed": "0x79e0",
      "from": "0x02847d22c33f5f060bd27e69f1a413ad44cab213",
      "to": "0xbd9d171319c8a4ba7346cbced9367334004f0e04",
      "contractAddress": null,
      "daFootprintGasScalar": "0x138",
      "l1BaseFeeScalar": "0x44d",
      "l1BlobBaseFee": "0x36f8450",
      "l1BlobBaseFeeScalar": "0xa118b",
      "l1Fee": "0x14a3a94e3",
      "l1GasPrice": "0x3ac52bf9",
      "l1GasUsed": "0x640"
    },
    {
      "status": "0x1",
      "cumulativeGasUsed": "0xa33cdc",
      "logs": [
        {
          "address": "0x250cd0e024137b19c52e401379d53ddae16c378f",
          "topics": [
            "0xddf252ad1be2c89b69c2b068fc378daa952ba7f163c4a11628f55a4df523b3ef",
            "0x0000000000000000000000000000000000000000000000000000000000000000",
            "0x00000000000000000000000002847d22c33f5f060bd27e69f1a413ad44cab213"
          ],
          "data": "0x000000000000000000000000000000000000000000084595161401484a000000",
          "blockHash": "0x0000000000000000000000000000000000000000000000000000000000000000",
          "blockNumber": "0x23a8957",
          "blockTimestamp": "0x6988718e",
          "transactionHash": "0xb28f12828c2384a6b7525fcbbe8e6d64cdbc12dd6b1eb25b0017ac352fb0d69f",
          "transactionIndex": "0x17",
          "logIndex": "0xa1",
          "removed": false
        }
      ],
      "logsBloom": "0x00000000000000000000000000000000000000000000000000000000000000000000000000000000000000000000000000000000000000000000000000000000000000000000000000000008000000000000000000000000000000000000000000000000020000000000000000000800000000400000000000000010000010000000000000000000000000000000000000000800000000000000000000000000000000000000000000000000000000000000000000000000000000020000000000800002000000000000000000000000000000000000000000000000000020000000000000000004000000000000000000000000000000000000000000000000",
      "type": "0x2",
      "transactionHash": "0xb28f12828c2384a6b7525fcbbe8e6d64cdbc12dd6b1eb25b0017ac352fb0d69f",
      "transactionIndex": "0x17",
      "blockHash": "0x0000000000000000000000000000000000000000000000000000000000000000",
      "blockNumber": "0x23a8957",
      "gasUsed": "0x10d14",
      "effectiveGasPrice": "0x124f80",
      "blobGasUsed": "0x79e0",
      "from": "0x02847d22c33f5f060bd27e69f1a413ad44cab213",
      "to": "0x250cd0e024137b19c52e401379d53ddae16c378f",
      "contractAddress": null,
      "daFootprintGasScalar": "0x138",
      "l1BaseFeeScalar": "0x44d",
      "l1BlobBaseFee": "0x36f8450",
      "l1BlobBaseFeeScalar": "0xa118b",
      "l1Fee": "0x14a3a94e3",
      "l1GasPrice": "0x3ac52bf9",
      "l1GasUsed": "0x640"
    },
    {
      "status": "0x1",
      "cumulativeGasUsed": "0xa3f465",
      "logs": [
        {
          "address": "0xa23c4ff095a7c6687747797a380e52e71d891d7d",
          "topics": [
            "0x8c5be1e5ebec7d5bd14f71427d1e84f3dd0314c0f7b2291e5b200ac8c7c3b925",
            "0x00000000000000000000000002847d22c33f5f060bd27e69f1a413ad44cab213",
            "0x000000000000000000000000000000000022d473030f116ddee9f6b43ac78ba3"
          ],
          "data": "0xffffffffffffffffffffffffffffffffffffffffffffffffffffffffffffffff",
          "blockHash": "0x0000000000000000000000000000000000000000000000000000000000000000",
          "blockNumber": "0x23a8957",
          "blockTimestamp": "0x6988718e",
          "transactionHash": "0x73ff07eae32c48a2090044351f1ddcfe68d8b26b2eb321f7169531f76c8c3228",
          "transactionIndex": "0x18",
          "logIndex": "0xa2",
          "removed": false
        }
      ],
      "logsBloom": "0x00000000000000000000000000000000000000000000000000000000000000000000000000000000000000000000000000000000800000000000000000200000000000000000000000004000000000000000000000000800000000000000000000000000000000000000000000000000000000400000000000000000000000000000000000000000000000000000000000000800000002000000000000000000020000000000000000000000000000000000000000000000000000000000000000000000000000800000000000000000000000000000000000000000000000000010200000000004000000000000000000000000000000000000000000000000",
      "type": "0x2",
      "transactionHash": "0x73ff07eae32c48a2090044351f1ddcfe68d8b26b2eb321f7169531f76c8c3228",
      "transactionIndex": "0x18",
      "blockHash": "0x0000000000000000000000000000000000000000000000000000000000000000",
      "blockNumber": "0x23a8957",
      "gasUsed": "0xb789",
      "effectiveGasPrice": "0x124f80",
      "blobGasUsed": "0x79e0",
      "from": "0x02847d22c33f5f060bd27e69f1a413ad44cab213",
      "to": "0xa23c4ff095a7c6687747797a380e52e71d891d7d",
      "contractAddress": null,
      "daFootprintGasScalar": "0x138",
      "l1BaseFeeScalar": "0x44d",
      "l1BlobBaseFee": "0x36f8450",
      "l1BlobBaseFeeScalar": "0xa118b",
      "l1Fee": "0x14a3a94e3",
      "l1GasPrice": "0x3ac52bf9",
      "l1GasUsed": "0x640"
    },
    {
      "status": "0x1",
      "cumulativeGasUsed": "0xa4af2f",
      "logs": [
        {
          "address": "0x000000000022d473030f116ddee9f6b43ac78ba3",
          "topics": [
            "0xda9fa7c1b00402c17d0161b249b1ab8bbec047c5a52207b9c112deffd817036b",
            "0x00000000000000000000000002847d22c33f5f060bd27e69f1a413ad44cab213",
            "0x000000000000000000000000a23c4ff095a7c6687747797a380e52e71d891d7d",
            "0x0000000000000000000000004b2c77d209d3405f41a037ec6c77f7f5b8e2ca80"
          ],
          "data": "0x000000000000000000000000ffffffffffffffffffffffffffffffffffffffff0000000000000000000000000000000000000000000000000000ffffffffffff",
          "blockHash": "0x0000000000000000000000000000000000000000000000000000000000000000",
          "blockNumber": "0x23a8957",
          "blockTimestamp": "0x6988718e",
          "transactionHash": "0x25db133a34a0d025436e9f7b0f755b684b4e3395a984e85edf45f85f8d1927c4",
          "transactionIndex": "0x19",
          "logIndex": "0xa3",
          "removed": false
        }
      ],
      "logsBloom": "0x00010000000000010000000000000000000000000000000000000000000000000000000000000000000000000000000000000000000000000008000010080000000000010000000000000000000000000000000000000000000000000000000000000000000000000000000000000000000000400000000000000000000000000020000000000000000000000000000000000800000000000000000000000000000000000000000000000000000000000000000000000000000000080000000000000000000000000000000000000000000000000000000040000000000004000800000000000004000000000000000000000000000000000000000000000400",
      "type": "0x2",
      "transactionHash": "0x25db133a34a0d025436e9f7b0f755b684b4e3395a984e85edf45f85f8d1927c4",
      "transactionIndex": "0x19",
      "blockHash": "0x0000000000000000000000000000000000000000000000000000000000000000",
      "blockNumber": "0x23a8957",
      "gasUsed": "0xbaca",
      "effectiveGasPrice": "0x124f80",
      "blobGasUsed": "0x89b8",
      "from": "0x02847d22c33f5f060bd27e69f1a413ad44cab213",
      "to": "0x000000000022d473030f116ddee9f6b43ac78ba3",
      "contractAddress": null,
      "daFootprintGasScalar": "0x138",
      "l1BaseFeeScalar": "0x44d",
      "l1BlobBaseFee": "0x36f8450",
      "l1BlobBaseFeeScalar": "0xa118b",
      "l1Fee": "0x14a3a94e3",
      "l1GasPrice": "0x3ac52bf9",
      "l1GasUsed": "0x71d"
    },
    {
      "status": "0x1",
      "cumulativeGasUsed": "0xa566b8",
      "logs": [
        {
          "address": "0x4b0c697aef1ffd55b912091e7fc2ba3771ab11ef",
          "topics": [
            "0x8c5be1e5ebec7d5bd14f71427d1e84f3dd0314c0f7b2291e5b200ac8c7c3b925",
            "0x00000000000000000000000002847d22c33f5f060bd27e69f1a413ad44cab213",
            "0x000000000000000000000000000000000022d473030f116ddee9f6b43ac78ba3"
          ],
          "data": "0xffffffffffffffffffffffffffffffffffffffffffffffffffffffffffffffff",
          "blockHash": "0x0000000000000000000000000000000000000000000000000000000000000000",
          "blockNumber": "0x23a8957",
          "blockTimestamp": "0x6988718e",
          "transactionHash": "0x1b93c9c9c3f8719e87e5f1d4033990c74aee34d8440a41960f8e71f5dfffdf34",
          "transactionIndex": "0x1a",
          "logIndex": "0xa4",
          "removed": false
        }
      ],
      "logsBloom": "0x00000000000000000000000000000000000000000000000000000000000000000000000000000000000000000000000000000000800000000000000000200000000000000002000000004000000000000000000000000800000000000000000000000000000000000000000000200000000000400000000000000000000000000000000000000000000000000000000000000800000000000000000000000000020000000000000000000000000000000000000000000000000000000000000000000000000000000000000000000000000000000000000000000000000000000010000000000004000000000000000000000000000000000000000000002000",
      "type": "0x2",
      "transactionHash": "0x1b93c9c9c3f8719e87e5f1d4033990c74aee34d8440a41960f8e71f5dfffdf34",
      "transactionIndex": "0x1a",
      "blockHash": "0x0000000000000000000000000000000000000000000000000000000000000000",
      "blockNumber": "0x23a8957",
      "gasUsed": "0xb789",
      "effectiveGasPrice": "0x124f80",
      "blobGasUsed": "0x79e0",
      "from": "0x02847d22c33f5f060bd27e69f1a413ad44cab213",
      "to": "0x4b0c697aef1ffd55b912091e7fc2ba3771ab11ef",
      "contractAddress": null,
      "daFootprintGasScalar": "0x138",
      "l1BaseFeeScalar": "0x44d",
      "l1BlobBaseFee": "0x36f8450",
      "l1BlobBaseFeeScalar": "0xa118b",
      "l1Fee": "0x14a3a94e3",
      "l1GasPrice": "0x3ac52bf9",
      "l1GasUsed": "0x640"
    },
    {
      "status": "0x1",
      "cumulativeGasUsed": "0xbd4a36",
      "logs": [
        {
          "address": "0x000000000022d473030f116ddee9f6b43ac78ba3",
          "topics": [
            "0xda9fa7c1b00402c17d0161b249b1ab8bbec047c5a52207b9c112deffd817036b",
            "0x00000000000000000000000002847d22c33f5f060bd27e69f1a413ad44cab213",
            "0x00000000000000000000000068e4f80d47b030f840f468ddfbd927c5a1746768",
            "0x0000000000000000000000004b2c77d209d3405f41a037ec6c77f7f5b8e2ca80"
          ],
          "data": "0x000000000000000000000000ffffffffffffffffffffffffffffffffffffffff0000000000000000000000000000000000000000000000000000ffffffffffff",
          "blockHash": "0x0000000000000000000000000000000000000000000000000000000000000000",
          "blockNumber": "0x23a8957",
          "blockTimestamp": "0x6988718e",
          "transactionHash": "0x3e238b259f0a0ad844b493953557a9b50b5f3c4c9aebf806ebd16420adf82b1f",
          "transactionIndex": "0x1e",
          "logIndex": "0xd5",
          "removed": false
        }
      ],
      "logsBloom": "0x00010000000000010000000000000000000000000000000000000000000000000000000000000000000000000000000000000000000000000008000010080000000000000000000000000000000000000000000000000000000000000000000000000000000000000080000000000000000000400000000000000000000000000020000000000000000000000000000000000800000000000000000000000000000000000000000000000000000000000000000000000000000000080008000000000000000000000000000000000000000000000000000040000000001000000000000000000004000000000000000000000000000000000000000000000400",
      "type": "0x2",
      "transactionHash": "0x3e238b259f0a0ad844b493953557a9b50b5f3c4c9aebf806ebd16420adf82b1f",
      "transactionIndex": "0x1e",
      "blockHash": "0x0000000000000000000000000000000000000000000000000000000000000000",
      "blockNumber": "0x23a8957",
      "gasUsed": "0xbaca",
      "effectiveGasPrice": "0x124f80",
      "blobGasUsed": "0x89b8",
      "from": "0x02847d22c33f5f060bd27e69f1a413ad44cab213",
      "to": "0x000000000022d473030f116ddee9f6b43ac78ba3",
      "contractAddress": null,
      "daFootprintGasScalar": "0x138",
      "l1BaseFeeScalar": "0x44d",
      "l1BlobBaseFee": "0x36f8450",
      "l1BlobBaseFeeScalar": "0xa118b",
      "l1Fee": "0x14a3a94e3",
      "l1GasPrice": "0x3ac52bf9",
      "l1GasUsed": "0x71d"
    },
    {
      "status": "0x1",
      "cumulativeGasUsed": "0xbe01bf",
      "logs": [
        {
          "address": "0xbd9d171319c8a4ba7346cbced9367334004f0e04",
          "topics": [
            "0x8c5be1e5ebec7d5bd14f71427d1e84f3dd0314c0f7b2291e5b200ac8c7c3b925",
            "0x00000000000000000000000002847d22c33f5f060bd27e69f1a413ad44cab213",
            "0x000000000000000000000000000000000022d473030f116ddee9f6b43ac78ba3"
          ],
          "data": "0xffffffffffffffffffffffffffffffffffffffffffffffffffffffffffffffff",
          "blockHash": "0x0000000000000000000000000000000000000000000000000000000000000000",
          "blockNumber": "0x23a8957",
          "blockTimestamp": "0x6988718e",
          "transactionHash": "0x499f11241f0e8951f0ceb1a9395903c8a753c054213fe0e7720604c87262974c",
          "transactionIndex": "0x1f",
          "logIndex": "0xd6",
          "removed": false
        }
      ],
      "logsBloom": "0x00000000000000000000000000000000000000000000000000000000000000000000000000000000000000100000000000000000800000000000040000200000000000000000000000004000000000000000000000000800000000000000000000000000000000000000000000000000000000400000000000000000000000000000000000000000000000000000000000000800000000000000000000000000020000000000000000000000000000000000000000000000000000000000400000000000000000000000000000000000000000000000000000000000000000000010000000000004000000000000000000000000000000000000000000000000",
      "type": "0x2",
      "transactionHash": "0x499f11241f0e8951f0ceb1a9395903c8a753c054213fe0e7720604c87262974c",
      "transactionIndex": "0x1f",
      "blockHash": "0x0000000000000000000000000000000000000000000000000000000000000000",
      "blockNumber": "0x23a8957",
      "gasUsed": "0xb789",
      "effectiveGasPrice": "0x124f80",
      "blobGasUsed": "0x79e0",
      "from": "0x02847d22c33f5f060bd27e69f1a413ad44cab213",
      "to": "0xbd9d171319c8a4ba7346cbced9367334004f0e04",
      "contractAddress": null,
      "daFootprintGasScalar": "0x138",
      "l1BaseFeeScalar": "0x44d",
      "l1BlobBaseFee": "0x36f8450",
      "l1BlobBaseFeeScalar": "0xa118b",
      "l1Fee": "0x14a3a94e3",
      "l1GasPrice": "0x3ac52bf9",
      "l1GasUsed": "0x640"
    },
    {
      "status": "0x1",
      "cumulativeGasUsed": "0xbf7406",
      "logs": [
        {
          "address": "0x250cd0e024137b19c52e401379d53ddae16c378f",
          "topics": [
            "0x8c5be1e5ebec7d5bd14f71427d1e84f3dd0314c0f7b2291e5b200ac8c7c3b925",
            "0x00000000000000000000000002847d22c33f5f060bd27e69f1a413ad44cab213",
            "0x000000000000000000000000000000000022d473030f116ddee9f6b43ac78ba3"
          ],
          "data": "0xffffffffffffffffffffffffffffffffffffffffffffffffffffffffffffffff",
          "blockHash": "0x454a27edd1eac191058ad57c68d2c201a7b1a118e8da098cf274bdac243b5059",
          "blockNumber": "0x23a8957",
          "blockTimestamp": "0x6988718e",
          "transactionHash": "0x909cf0d0a1a745a0b170ce0c27fe86a50aeff390dec28702c90d8c576c0401cf",
          "transactionIndex": "0x21",
          "logIndex": "0xd8",
          "removed": false
        }
      ],
      "logsBloom": "0x00000000000000000000000000000000000000000000000000000000000000000000000000000000000000000000000000000000800000000000000000200000000000000000000000004000000000000000000000000800000000000000000000000000000000000000000000000000000000400000000000000000000010000000000000000000000000000000000000000800000000000000000000000000020000000000000000000000000000000000000000000000000000020000000000800000000000000000000000000000000000000000000000000000000000000010000000000004000000000000000000000000000000000000000000000000",
      "type": "0x2",
      "transactionHash": "0x909cf0d0a1a745a0b170ce0c27fe86a50aeff390dec28702c90d8c576c0401cf",
      "transactionIndex": "0x21",
      "blockHash": "0x454a27edd1eac191058ad57c68d2c201a7b1a118e8da098cf274bdac243b5059",
      "blockNumber": "0x23a8957",
      "gasUsed": "0xb789",
      "effectiveGasPrice": "0x124f80",
      "blobGasUsed": "0x79e0",
      "from": "0x02847d22c33f5f060bd27e69f1a413ad44cab213",
      "to": "0x250cd0e024137b19c52e401379d53ddae16c378f",
      "contractAddress": null,
      "daFootprintGasScalar": "0x138",
      "l1BaseFeeScalar": "0x44d",
      "l1BlobBaseFee": "0x36f8450",
      "l1BlobBaseFeeScalar": "0xa118b",
      "l1Fee": "0x14a3a94e3",
      "l1GasPrice": "0x3ac52bf9",
      "l1GasUsed": "0x640"
    },
    {
      "status": "0x1",
      "cumulativeGasUsed": "0xdb9e6",
      "logs": [
        {
          "address": "0x05e73354cfdd6745c338b50bcfdfa3aa6fa03408",
          "topics": [
            "0xdd466e674ea557f56295e2d0218a125ea4b4f0f6f3307b95f85e6110838d6438",
            "0xa986db48c16f92a7066dfb54fc81cbf47cdeb94419c3db47f758aaebb9f63e8c",
            "0x00000000000000000000000068e4f80d47b030f840f468ddfbd927c5a1746768",
            "0x000000000000000000000000bd9d171319c8a4ba7346cbced9367334004f0e04"
          ],
          "data": "0x0000000000000000000000000000000000000000000000000000000000000bb8000000000000000000000000000000000000000000000000000000000000003c000000000000000000000000000000000000000000000000000000000000000000000000000000000000000000000000000000002c905a6f4b47000000000000ffffffffffffffffffffffffffffffffffffffffffffffffffffffffffff7769",
          "blockHash": "0x0000000000000000000000000000000000000000000000000000000000000000",
          "blockNumber": "0x23a8958",
          "blockTimestamp": "0x69887190",
          "transactionHash": "0x3fed7a2aff1a26cd8e710be406c925b75263cb00c45b79ac6ab521f7b9eeb2bc",
          "transactionIndex": "0x2",
          "logIndex": "0x5",
          "removed": false
        },
        {
          "address": "0x4b2c77d209d3405f41a037ec6c77f7f5b8e2ca80",
          "topics": [
            "0xddf252ad1be2c89b69c2b068fc378daa952ba7f163c4a11628f55a4df523b3ef",
            "0x0000000000000000000000000000000000000000000000000000000000000000",
            "0x00000000000000000000000002847d22c33f5f060bd27e69f1a413ad44cab213",
            "0x000000000000000000000000000000000000000000000000000000000000429b"
          ],
          "data": "0x",
          "blockHash": "0x0000000000000000000000000000000000000000000000000000000000000000",
          "blockNumber": "0x23a8958",
          "blockTimestamp": "0x69887190",
          "transactionHash": "0x3fed7a2aff1a26cd8e710be406c925b75263cb00c45b79ac6ab521f7b9eeb2bc",
          "transactionIndex": "0x2",
          "logIndex": "0x6",
          "removed": false
        },
        {
          "address": "0x05e73354cfdd6745c338b50bcfdfa3aa6fa03408",
          "topics": [
            "0xf208f4912782fd25c7f114ca3723a2d5dd6f3bcc3ac8db5af63baa85f711d5ec",
            "0xa986db48c16f92a7066dfb54fc81cbf47cdeb94419c3db47f758aaebb9f63e8c",
            "0x0000000000000000000000004b2c77d209d3405f41a037ec6c77f7f5b8e2ca80"
          ],
          "data": "0xfffffffffffffffffffffffffffffffffffffffffffffffffffffffffffec7d00000000000000000000000000000000000000000000000000000000000002724000000000000000000000000000000000000000000000000000000017edab2c8000000000000000000000000000000000000000000000000000000000000429b",
          "blockHash": "0x0000000000000000000000000000000000000000000000000000000000000000",
          "blockNumber": "0x23a8958",
          "blockTimestamp": "0x69887190",
          "transactionHash": "0x3fed7a2aff1a26cd8e710be406c925b75263cb00c45b79ac6ab521f7b9eeb2bc",
          "transactionIndex": "0x2",
          "logIndex": "0x7",
          "removed": false
        },
        {
          "address": "0x68e4f80d47b030f840f468ddfbd927c5a1746768",
          "topics": [
            "0xddf252ad1be2c89b69c2b068fc378daa952ba7f163c4a11628f55a4df523b3ef",
            "0x00000000000000000000000002847d22c33f5f060bd27e69f1a413ad44cab213",
            "0x00000000000000000000000005e73354cfdd6745c338b50bcfdfa3aa6fa03408"
          ],
          "data": "0x00000000000000000000000000000000000000000000000000000007af580850",
          "blockHash": "0x0000000000000000000000000000000000000000000000000000000000000000",
          "blockNumber": "0x23a8958",
          "blockTimestamp": "0x69887190",
          "transactionHash": "0x3fed7a2aff1a26cd8e710be406c925b75263cb00c45b79ac6ab521f7b9eeb2bc",
          "transactionIndex": "0x2",
          "logIndex": "0x8",
          "removed": false
        },
        {
          "address": "0xbd9d171319c8a4ba7346cbced9367334004f0e04",
          "topics": [
            "0xddf252ad1be2c89b69c2b068fc378daa952ba7f163c4a11628f55a4df523b3ef",
            "0x00000000000000000000000002847d22c33f5f060bd27e69f1a413ad44cab213",
            "0x00000000000000000000000005e73354cfdd6745c338b50bcfdfa3aa6fa03408"
          ],
          "data": "0x000000000000000000000000000000000000000000000000000000003b9aca00",
          "blockHash": "0x0000000000000000000000000000000000000000000000000000000000000000",
          "blockNumber": "0x23a8958",
          "blockTimestamp": "0x69887190",
          "transactionHash": "0x3fed7a2aff1a26cd8e710be406c925b75263cb00c45b79ac6ab521f7b9eeb2bc",
          "transactionIndex": "0x2",
          "logIndex": "0x9",
          "removed": false
        }
      ],
      "logsBloom": "0x00000000000000110000000000000000800000000000000000000000000000000100000100000000000000100000000000000000000000000008040010000800000000000010010000000008040000002001000000100000000000008000000000000000020000000080000000000800000000400000000000008010000000000000000005000008000000080000000000000801000000000000000008200000000004000000000000000000000001000000000000000010002000000008400000000002001000000000000000000000000000000000000000000000001020000000000000000004000000000800000004000000000000000000000000000000",
      "type": "0x2",
      "transactionHash": "0x3fed7a2aff1a26cd8e710be406c925b75263cb00c45b79ac6ab521f7b9eeb2bc",
      "transactionIndex": "0x2",
      "blockHash": "0x0000000000000000000000000000000000000000000000000000000000000000",
      "blockNumber": "0x23a8958",
      "gasUsed": "0x66066",
      "effectiveGasPrice": "0x124f80",
      "blobGasUsed": "0x18ae0",
      "from": "0x02847d22c33f5f060bd27e69f1a413ad44cab213",
      "to": "0x4b2c77d209d3405f41a037ec6c77f7f5b8e2ca80",
      "contractAddress": null,
      "daFootprintGasScalar": "0x138",
      "l1BaseFeeScalar": "0x44d",
      "l1BlobBaseFee": "0x36f8450",
      "l1BlobBaseFeeScalar": "0xa118b",
      "l1Fee": "0x4223c7327",
      "l1GasPrice": "0x3ac52bf9",
      "l1GasUsed": "0x144a"
    },
    {
      "status": "0x1",
      "cumulativeGasUsed": "0x1b0014",
      "logs": [
        {
          "address": "0x05e73354cfdd6745c338b50bcfdfa3aa6fa03408",
          "topics": [
            "0xdd466e674ea557f56295e2d0218a125ea4b4f0f6f3307b95f85e6110838d6438",
            "0x7f7fa236bfa0fee7ddf56557cf8337c2e40a5a9414ff95415d04f8441cbf092c",
            "0x000000000000000000000000250cd0e024137b19c52e401379d53ddae16c378f",
            "0x000000000000000000000000a23c4ff095a7c6687747797a380e52e71d891d7d"
          ],
          "data": "0x0000000000000000000000000000000000000000000000000000000000000bb8000000000000000000000000000000000000000000000000000000000000003c000000000000000000000000000000000000000000000000000000000000000000000000000000000000000000000000000000010000000000000000000000000000000000000000000000000000000000000000000000000000000000000000",
          "blockHash": "0x0000000000000000000000000000000000000000000000000000000000000000",
          "blockNumber": "0x23a8958",
          "blockTimestamp": "0x69887190",
          "transactionHash": "0x790053bec6af9a9d5b441ebe0b9a5e3dd365472cf12e7023bdd4bcf99c14ca68",
          "transactionIndex": "0x4",
          "logIndex": "0xf",
          "removed": false
        },
        {
          "address": "0x4b2c77d209d3405f41a037ec6c77f7f5b8e2ca80",
          "topics": [
            "0xddf252ad1be2c89b69c2b068fc378daa952ba7f163c4a11628f55a4df523b3ef",
            "0x0000000000000000000000000000000000000000000000000000000000000000",
            "0x00000000000000000000000002847d22c33f5f060bd27e69f1a413ad44cab213",
            "0x000000000000000000000000000000000000000000000000000000000000429d"
          ],
          "data": "0x",
          "blockHash": "0x0000000000000000000000000000000000000000000000000000000000000000",
          "blockNumber": "0x23a8958",
          "blockTimestamp": "0x69887190",
          "transactionHash": "0x790053bec6af9a9d5b441ebe0b9a5e3dd365472cf12e7023bdd4bcf99c14ca68",
          "transactionIndex": "0x4",
          "logIndex": "0x10",
          "removed": false
        },
        {
          "address": "0x05e73354cfdd6745c338b50bcfdfa3aa6fa03408",
          "topics": [
            "0xf208f4912782fd25c7f114ca3723a2d5dd6f3bcc3ac8db5af63baa85f711d5ec",
            "0x7f7fa236bfa0fee7ddf56557cf8337c2e40a5a9414ff95415d04f8441cbf092c",
            "0x0000000000000000000000004b2c77d209d3405f41a037ec6c77f7f5b8e2ca80"
          ],
          "data": "0xffffffffffffffffffffffffffffffffffffffffffffffffffffffffffff5038000000000000000000000000000000000000000000000000000000000000afc80000000000000000000000000000000000000000000000000000001a06cc10cc000000000000000000000000000000000000000000000000000000000000429d",
          "blockHash": "0x0000000000000000000000000000000000000000000000000000000000000000",
          "blockNumber": "0x23a8958",
          "blockTimestamp": "0x69887190",
          "transactionHash": "0x790053bec6af9a9d5b441ebe0b9a5e3dd365472cf12e7023bdd4bcf99c14ca68",
          "transactionIndex": "0x4",
          "logIndex": "0x11",
          "removed": false
        },
        {
          "address": "0x250cd0e024137b19c52e401379d53ddae16c378f",
          "topics": [
            "0xddf252ad1be2c89b69c2b068fc378daa952ba7f163c4a11628f55a4df523b3ef",
            "0x00000000000000000000000002847d22c33f5f060bd27e69f1a413ad44cab213",
            "0x00000000000000000000000005e73354cfdd6745c338b50bcfdfa3aa6fa03408"
          ],
          "data": "0x000000000000000000000000000000000000000000000000000000174876e800",
          "blockHash": "0x0000000000000000000000000000000000000000000000000000000000000000",
          "blockNumber": "0x23a8958",
          "blockTimestamp": "0x69887190",
          "transactionHash": "0x790053bec6af9a9d5b441ebe0b9a5e3dd365472cf12e7023bdd4bcf99c14ca68",
          "transactionIndex": "0x4",
          "logIndex": "0x12",
          "removed": false
        },
        {
          "address": "0xa23c4ff095a7c6687747797a380e52e71d891d7d",
          "topics": [
            "0xddf252ad1be2c89b69c2b068fc378daa952ba7f163c4a11628f55a4df523b3ef",
            "0x00000000000000000000000002847d22c33f5f060bd27e69f1a413ad44cab213",
            "0x00000000000000000000000005e73354cfdd6745c338b50bcfdfa3aa6fa03408"
          ],
          "data": "0x000000000000000000000000000000000000000000000000000000174876e800",
          "blockHash": "0x0000000000000000000000000000000000000000000000000000000000000000",
          "blockNumber": "0x23a8958",
          "blockTimestamp": "0x69887190",
          "transactionHash": "0x790053bec6af9a9d5b441ebe0b9a5e3dd365472cf12e7023bdd4bcf99c14ca68",
          "transactionIndex": "0x4",
          "logIndex": "0x13",
          "removed": false
        }
      ],
      "logsBloom": "0x00000000000000010000000000000000000000000000000000020000000000000100000100000000000000000000000000000000000000000008000010000800000000010010000000000008000000000000000000500000000000008000000000000000020000000000000000000c00000000400000000000010010000030004000000005000008000000000000000000000801000002000000000000200000000004000000000000000000000000001000000000000000000000020000000000800002001000800000000000000000000000000000100000000000000024000800200000000004000000000800000004000000000000000000000000800000",
      "type": "0x2",
      "transactionHash": "0x790053bec6af9a9d5b441ebe0b9a5e3dd365472cf12e7023bdd4bcf99c14ca68",
      "transactionIndex": "0x4",
      "blockHash": "0x0000000000000000000000000000000000000000000000000000000000000000",
      "blockNumber": "0x23a8958",
      "gasUsed": "0x6a32f",
      "effectiveGasPrice": "0x124f80",
      "blobGasUsed": "0x18738",
      "from": "0x02847d22c33f5f060bd27e69f1a413ad44cab213",
      "to": "0x4b2c77d209d3405f41a037ec6c77f7f5b8e2ca80",
      "contractAddress": null,
      "daFootprintGasScalar": "0x138",
      "l1BaseFeeScalar": "0x44d",
      "l1BlobBaseFee": "0x36f8450",
      "l1BlobBaseFeeScalar": "0xa118b",
      "l1Fee": "0x4223c7327",
      "l1GasPrice": "0x3ac52bf9",
      "l1GasUsed": "0x1414"
    }
  ],
  "libraries": [],
  "pending": [],
  "returns": {},
  "timestamp": 1770549659,
  "chain": 84532,
  "commit": null
}